:100000000C944C030C9469030C9469030C946903DD
:100010000C9469030C9469030C9469030C946903B0
:100020000C9469030C9469030C9420250C94DC2433
:100030000C941D260C9469030C9469030C946903B9
:100040000C9469030C9469030C9469030C94690380
:100050000C9469030C94F9250C9469030C946903BE
:100060000C9469030C9469030C9469030C94690360
:100070000C9469030C9469030C9469030C94690350
:100080000C9469030C9469030C9469030C94690340
:100090000C9469030C9469030C9469030C94690330
:1000A0000C9469030C9469030C946903050109021B
:1000B000A10185020901A1000509190129081500FE
:1000C0002501950875018102050109300931158165
:1000D000257F95027508810609381581257F9501D0
:1000E00075088106050C0A38021581257F95017572
:1000F000088106C0C005010980A101850319012AF4
:10010000B700150126B700950175108100C0050CD8
:100110000901A101850419012AA002150126A002E6
:10012000950175108100C005010906A1018506052C
:100130000719E029E71500250195087501810205D9
:1001400007190029EF1500250195F07501810205B9
:10015000081901290595057501910295017503910D
:1001600001C00660FF0961A1010962150026FF00B8
:100170009520750881020963150026FF00952075FA
:10018000089102C005010906A101050719E029E748
:1001900015002501950875018102950175088101F9
:1001A0000507190029FF150026FF0095067508812F
:1001B000000508190129059505750191029501753C
:1001C000039101C0000000000000000000000000DA
:1001D000000000000000000000000000000000001F
:1001E00000000000000000007E0F00D4FFFFFFC7EA
:1001F0000000007800000000000000002A2B28000A
:1002000000000000000000000000000000000029C5
:10021000000000002C1E3420212224342627252E05
:10022000362D3738271E1F2021222324252633333D
:10023000362E37381F0405060708090A0B0C0D0E69
:100240000F101112131415161718191A1B1C1D2F35
:100250003130232D350405060708090A0B0C0D0E55
:100260000F101112131415161718191A1B1C1D2F15
:100270003130354C0001010101010101010102028F
:100280000202020202020203030303030303030444
:10029000040404040404050505050506060606060F
:1002A000070707070708080808090909090A0A0AC9
:1002B0000B0B0B0C0C0C0D0D0D0E0E0E0F0F0F106B
:1002C00010111111121213131414151516161717F5
:1002D000181819191A1A1B1B1C1D1D1E1E1F202061
:1002E000212222232424252626272829292A2B2CAB
:1002F0002D2D2E2F30313232333435363738393ACE
:100300003B3C3D3E3F404142434445464748494AC5
:100310004C4D4E4F50515354555658595A5B5D5E93
:100320005F616264656668696B6C6D6F707273752E
:1003300077787A7B7D7E8082838587888A8C8E8F92
:1003400091939596989A9C9EA0A2A3A5A7A9ABADC0
:10035000AFB1B3B5B7BABCBEC0C2C4C6C9CBCDCFAE
:10036000D1D4D6D8DBDDDFE2E4E7E9EBEEF0F3F55C
:10037000F8FAFDFF29001E001F00200021002200C6
:10038000230024002500260027002D002E002A002F
:1003900000004C002B0014001A0008001500170084
:1003A00000001C0018000C00120013002F00300089
:1003B00031004B00390004001600070009000A0054
:1003C00000000B000D000E000F0033003400280069
:1003D00000004E00E1001D001B0006001900050092
:1003E000000011001000360037003800E500000062
:1003F00052000000E0000000E2002C0000000000BD
:1004000001512C0000000000E600AA00A9005000E5
:1004100051004F0035023A003B003C003D003E00D9
:100420003F00400041004200430044004500005CA2
:100430000000460001000100010001000100010070
:10044000000001000100010001000100C75CC85C60
:10045000C25CC55C01000100010001000100010057
:100460000000010001000100010001000100010085
:100470000000C65C01000100010001000100010054
:100480000000010001000100010001000100000066
:10049000C95C000001000000010001000000000034
:1004A0000100010000000000C35C01000100010028
:1004B000CA5C01000100010001000100010001000F
:1004C0000100010001000100010001000100010024
:1004D0000000010001000100010001000100010015
:1004E0000000010001000100010001000100010005
:1004F00001000100010001000100010001000100F4
:1005000000000100010001000100010001000100E4
:1005100000000100010001000100010001000100D4
:1005200000000100010001000100010001000000C5
:1005300001000000010000000100010000000000B7
:1005400001000100000000000100010001000100A5
:100550000100010001000100010001000100010093
:100560000100010001000100010001000100010083
:100570000000010001000100010001000100010074
:100580000000010001000100010001000100010064
:100590000100010001000100010001000100010053
:1005A0000000010001000100010001000100010044
:1005B0000000010001000100010001000100010034
:1005C0000000010001000100010001000100000025
:1005D0000100000001000000010001000000000017
:1005E0000100010000000000010001000100010005
:1005F0000100010009025B00030100A0FA090400E8
:10060000000103010100092111010001224000073E
:10061000058103080001090401000203000000092C
:100620002111010001222200070582032000010799
:100630000503032000010904020001030000000972
:10064000211101000122B6000705840320000112D8
:1006500001000200000008EDEC6336010001020019
:10066000011A03460061006E006300790041006CCE
:100670000069006300650036003600000014034680
:100680000061006E0063007900740065006300681B
:10069000000000040309040011241FBECFEFDAE0BC
:1006A000DEBFCDBF25E0AEEDB2E001C01D92A835A2
:1006B000B207E1F712E0A0E0B1E0E6E4FDE502C038
:1006C00005900D92AE3DB107D9F70E9444260C94D7
:1006D0005A2E0C940000E8EDF0E080818E7F80833C
:1006E0001092E2001092DA001092E100A0EEB0E069
:1006F0008C9181608C9380818F77808319BCA7ED6A
:10070000B0E08C918E7F8C9380818F7E808310925D
:100710001B0508952091E4003091E50095E6A901BC
:100720002091EC00822F817020FF06C08091E800AC
:1007300080FF06C080E008952091E80022FD1AC0E5
:1007400080914005882389F0853089F08091EB0005
:1007500085FD0FC02091E4003091E500421753075A
:10076000F9F29150E1F684E0089582E0089583E083
:10077000089581E00895EF92FF920F931F93CF9316
:100780007C018B010E948A03C82F811117C08091C0
:10079000E80085FD0BC08091E8008E778093E8002B
:1007A0000E948A03882399F3C82F08C0F70181911A
:1007B0007F018093F1000150110949F78C2FCF91EF
:1007C0001F910F91FF90EF9008958091420587FF50
:1007D00013C08091E80082FF06C08091E8008B770B
:1007E0008093E80004C0809140058111F2CF089504
:1007F000809140058823D9F38091E80080FFF8CFED
:100800008091E8008E77ECCF982F9093E900242F09
:10081000762F50E0891731F07091EC002091ED00B7
:100820005091F00021FD07C09F5F973071F78093D2
:10083000E90081E008953091EB003E7F3093EB00BA
:100840003091ED003D7F3093ED003091EB00316051
:100850003093EB007093EC002093ED005093F00088
:100860002091EE0027FDE0CF80E00895B0E0A0E009
:10087000ECE3F4E00C94CB2BC8EDD0E088818F7EC4
:100880008883E7EDF0E080818160808384E082BF2F
:1008900081E080931B0588818E7F888302EE10E0C3
:1008A000F80110821092DA0081EEC82ED12CF601E8
:1008B000108288818F778883888180688883888187
:1008C0008F7D888319BC10924005109241051092CB
:1008D0003F0510923E0590EEE92EF12CF701808144
:1008E0008B7F808388818160888342E060E080E044
:1008F0000E940404F60180818E7F8083F80180814C
:1009000081608083808188608083F70180818E7F11
:100910008083888180618883CDB7DEB7E8E00C945E
:10092000E72BFC01809148059091490586179707B0
:10093000A0F06115710529F49091E8009E779093DD
:10094000E80090E06115710551F4911108C08091A3
:10095000E80082FF34C080E00895BC01F2CF8091AE
:1009600040058823C1F18530C1F18091E80083FD05
:1009700030C08091E80082FDEACF8091E80080FFDE
:10098000E1CF8091F3002091F200382F61157105BD
:1009900019F02830310558F091E02830310509F080
:1009A00090E02091E8002E772093E800CBCF819152
:1009B0008093F100615071092F5F3F4FE7CF809125
:1009C0004005882341F0853041F08091E80083FFA5
:1009D000BECF81E0089582E0089583E008950895F0
:1009E00080911D05089587E797E79093010880930C
:1009F000000888E19AE00FB6F894A895809360000B
:100A00000FBE90936000FFCF9C014FB7F894809188
:100A1000120590911305A0911405B09115054FBFD3
:100A2000821B930B08952FB7F89460911205709173
:100A3000130580911405909115052FBF08952FB7C8
:100A4000F8948091120590911305A0911405B0912E
:100A500015052FBF089520911B012223C9F0209175
:100A6000160527FF15C0E62FE695E695E695EE31CB
:100A7000D8F4E80FF92FF11D677021E030E001C0D4
:100A8000220F6A95EAF72095828128232283089510
:100A9000FC01329608962191621303C0DF01119781
:100AA0001C92E817F907B9F7089520911B0122233A
:100AB000C1F02091160527FF14C0E62FE695E695B4
:100AC000E695EE31F8F4E80FF92FF11D677021E09B
:100AD00030E001C0220F6A95EAF78281822B82837F
:100AE0000895FC0132962FEF30E04191641751F0E8
:100AF0002F3F19F4411101C0232F3F5F3630A9F772
:100B00002F3F09F40895820F911D27FD9A95FC014E
:100B10006283089520910F05309110052817390739
:100B200071F09093100580930F05E0910D05F09101
:100B30000E05309721F00084F185E02D0995089588
:100B400020910B0530910C052817390771F090930F
:100B50000C0580930B05E0910D05F0910E05309783
:100B600021F00680F781E02D09950895E0910D05AB
:100B7000F0910E05309729F00190F081E02D099554
:100B8000089580E00895FA01811101C0FB010995E3
:100B90000895E5E1F4E0818360834283339695E034
:100BA000EB30F907C1F70895FC01EE0FFF1FE80FC6
:100BB000F91FEB5EFB4F6183408322830895EEE4CF
:100BC000F5E0248130E1231B08F420E024838091A8
:100BD00014048160809314040895EEE4F5E0248108
:100BE00030E1230F08F42FEF2483809114048160F7
:100BF00080931404089590914E05937071F0809342
:100C00004F0560935005493C08F048EC409351056E
:100C100080911404822B809314040895EEE4F5E08F
:100C2000438120E1421B08F440E0818121E06281A0
:100C300090E00E94FB050895EEE4F5E0438120E199
:100C4000420F08F44FEF818121E0628190E00E9421
:100C5000FB050895EEE4F5E0628120E1621B08F4F3
:100C600060E0818121E0438190E00E94FB050895CE
:100C7000EEE4F5E0628120E1620F08F46FEF81811C
:100C800021E0438190E00E94FB050895EEE4F5E049
:100C9000818121E0438162818850990B0E94FB058C
:100CA0000895EEE4F5E0818190E021E043816281E6
:100CB00008960E94FB05089590914E05937061F08F
:100CC00081110BC0946090934E0510921A0180918F
:100CD0001404862B8093140408958E3110F09467C9
:100CE000F2CF880F880F982BEECF80914E05869516
:100CF0008695815009F48DE161E00E945C060895BB
:100D000080914E05869586958F5F8E3108F081E043
:100D100061E00E945C060895E42FF0E0EE0FFF1FF3
:100D2000E951FE4F9081921B97FD9195292F38E153
:100D3000239F212D1124620F08950F931F9310E01C
:100D4000F801EE0FFF1FE951FE4F9081905797FD7C
:100D50009195000F111FF801E851FE4F00810052DC
:100D6000110B2003F001219FF00D112408E310E086
:100D7000091B110997FD139540039001419F300D08
:100D80001124E20FF31F9F01220F331F2E0F3F1F6D
:100D900037FF02C021583F4F220F232F221F330B52
:100DA000620F1F910F9108950F931F93522F10E020
:100DB000F801EE0FFF1FE851FE4FA081A052BB0BC0
:100DC0009D015203F001539FF00D1124000F111FDC
:100DD000D801A951BE4F0C910057110B400390014F
:100DE000419F300D11242E0F3F1F37FF02C0215CA1
:100DF0003F4F96E0359527959A95E1F7620F1F9141
:100E00000F9108950F931F93522F10E0F801EE0FEA
:100E1000FF1FE851FE4FA081A052BB0B9D01520362
:100E2000F001539FF00D1124000F111FD801A9519B
:100E3000BE4F0C910057110B40039001419F300DA4
:100E400011242E0F3F1F37FF02C021583F4F220FA2
:100E5000232F221F330B620F1F910F910895EF92E2
:100E60000F93972F23E0029FB0011124759567958A
:100E70006E0D792F0F91EF900895322F50E0FA0107
:100E8000EE0FFF1FE851FE4F9081905297FD919514
:100E9000440F551FFA01E951FE4F2081231B330BEC
:100EA000290F311D97FD3A95620F0895E42FF0E068
:100EB000EE0FFF1FE851FE4F6081621B0895E42F83
:100EC000F0E0EE0FFF1FE951FE4F6081621B0895B5
:100ED000622F0895E42FF0E0EE0FFF1FE951FE4F5F
:100EE000408134EE439F412D1124E82FF0E050E083
:100EF000445E5F4FDA01A21BB1099D01B7FF03C039
:100F000031952195310993E0220F331F9A95E1F72E
:100F1000AF01421B530B9A0157FD20E0582F259F2C
:100F2000212D1124822F0895E42FF0E0EE0FFF1FF2
:100F3000E951FE4F408134EE439F412D1124E72FAC
:100F4000F0E050E0445E5F4FDA01A21BB1099D0161
:100F5000B7FF03C031952195310993E0220F331F6C
:100F60009A95E1F7AF01421B530B9A0157FD20E020
:100F7000279F212D1124722F08950E94C9050895DD
:100F80000E94D4050895FC019B01009729F480E09C
:100F900077FF2BC080E80895AC0197FF04C0442779
:100FA0005527481B590BB901640F751F37FD10C039
:100FB000241B350BC901A5E0880F991FAA95E1F7FD
:100FC0000E94A02B80E2861BF7FF0FC08195089539
:100FD000CB0165E0880F991F6A95E1F7BA01621BA2
:100FE000730B0E94A02B80E6EECF0895EF920F9333
:100FF000CF93DF93D72FC82FC9010E19BA010E94D2
:10100000C307602F681B7D2F8C2FDF91CF910F912D
:10101000EF9008950F93CF93DF93D72FC82FC90177
:10102000BA010E94C307682F600F7D2F8C2FDF91BC
:10103000CF910F910895EF920F931F93CF93DF936A
:10104000D62FC72F182FC9010E19010FBA010E9400
:10105000C307081B202F219F212D1124822F6D2FC4
:101060007C2FDF91CF911F910F91EF900895EF9218
:101070000F931F93CF93DF93D62F172FC82FC9013C
:101080000E19070FBA010E94C307702F781B719FBA
:10109000712D11246D2F8C2FDF91CF911F910F9106
:1010A000EF9008950F931F93CF93DF93D62FC72F01
:1010B000182FC901212F201B022FBA010E94C3073C
:1010C000982F990F990F891B800F282F219F212D71
:1010D0001124822F6D2F7C2FDF91CF911F910F91C3
:1010E00008950F931F93CF93DF93D62F172FC82FF9
:1010F000C901272F201B022FBA010E94C307982F76
:10110000990F990F782F791B700F719F712D1124F2
:101110006D2F8C2FDF91CF911F910F910895E82FA4
:1011200086FDE0952E2F2F7086FD2F5FE695E695C4
:10113000E695E670F0E0E058FE4F9181929F902D89
:10114000212D112492959F702295207F922B208132
:10115000920F87FD919580E8890F08950F931F9353
:10116000CF93DF938B01D82FC42F822F0E948F083B
:10117000EC2FF0E0EE0FFF1FE951FE4F90819058E9
:10118000890F87FD8195880F682F2CE0629F612D64
:101190001124600F712F8D2FDF91CF911F910F912F
:1011A0000895409116015091170125E038E0429FC3
:1011B000C001439F900D529F900D1124875E994C62
:1011C0009093170180931601890F0895AC01823026
:1011D000910508F408959FEF413E8EE1580740F4D1
:1011E0009A0195E0369527959A95E1F798E0920F48
:1011F00061E0E62FE90FFF27FF1F9F013595279537
:10120000822F229FF001239FF00DF00D11244E1725
:101210005F0738F49FEF920F961758F78FEF860FFE
:1012200008952F3FE9F361E0620FF6CF0F93CF935C
:10123000DF93D72FC82F47FD419588E390E0841BAB
:10124000910947FD9395889FB001899F700D700D9E
:101250001124229FC001239F900D900D1124860F11
:10126000971F0E94E608982F990F890F682F600F2B
:101270007D2F8C2FDF91CF910F91089530E020E0EA
:10128000869F212D969F200D311D1124C90108959F
:10129000AF92BF92CF92DF92FF920F931F93CF93A3
:1012A000DF93362F472FE82FF0E0EC58FD4F7111F8
:1012B0000FC0E4918E2F2E2F6E2F722FDF91CF91C2
:1012C0001F910F91FF90DF90CF90BF90AF90089546
:1012D000C72FD0E02491F22E022F10E056E0659F38
:1012E000C0011124EFEFF0E0BF010E948C2B832F8F
:1012F00090E0880F991F35E5369FD001379FB00DDC
:1013000011248A1B9B0B982F990F980F6F01CC1AF1
:10131000DD0AC09ED001C19EB00DD09EB00D11243B
:101320008B2F499FA0011124452F55276F01C41A07
:10133000D50AC09EA001C19E500DD09E500D112413
:101340005F01A91AB108AC9E6001AD9ED00CBC9E95
:10135000D00C1124CD2CDD24EC19FD09E09FE00117
:10136000E19FD00DF09FD00D1124ED2F623071055B
:10137000A1F050F46115710509F49ECF613071053B
:1013800081F0EB2F852F98CF6430710569F080F0E4
:101390006630710509F490CFF4CFE22F2B2F8D2FFB
:1013A0008BCFE22F252F88CFEB2F822F2D2F84CFAD
:1013B0002B2F8F2DE52F80CFB0E0A0E0E2EEF9E0FB
:1013C0000C94CC2B7C01C0911C0181E1C89FC02DE5
:1013D000112411E11C0F012F133508F002E5609173
:1013E00052056695669521E0620F08F46FEF8091D3
:1013F0004A0590914B050E943E09D82ED0E0C017B7
:1014000048F081E0123508F080E0CDB7DEB7E7E0C4
:101410000C94E82BFE01E557FD4F808190911D0152
:10142000892391F060914F0570915005809151058D
:101430002D2D4C2FF70109950E944809462F282F82
:10144000672FCE010E94C0072196D9CFB0E0A0E05F
:10145000ECE2FAE00C94C82B6C01C0911C0181E114
:10146000C89FC02D112411E11C0FB12E133510F0AF
:1014700032E5B32E609152056695669580914A05D6
:1014800090914B050E943E09F82E80E48F0D0E943A
:101490008F0890E8A92EA80E8F2D0E948F0820E8B3
:1014A000922E980ED0E0CB1548F081E0123508F06E
:1014B00080E0CDB7DEB7EBE00C94E42BFE01E557FE
:1014C000FD4F808190911D018923A1F060914F050E
:1014D0007091500580915105EF2C0C2F292D4A2D2C
:1014E000F60109950E944809462F282F672FCE0143
:1014F0000E94C0072196D7CFB0E0A0E0E2E8FAE072
:101500000C94C62B5C01C0911C0181E1C89FC02DC9
:10151000112411E11C0FF12E133510F032E5F32EDA
:1015200060915205669580914A0590914B050E9405
:101530003E09782ED0E0CF1548F081E0123508F052
:1015400080E0CDB7DEB7EDE00C94E22BFE01E5576D
:10155000FD4F808190911D018923C9F1CE01880F33
:10156000991F89569E4FFC01E05BFF4F2081422F5F
:101570004057550B6A018F5A9F4FFC018081282FDD
:101580002052330B4901449F9001459F300D300D8F
:101590001124889CC001899C900D900D1124820F0C
:1015A000931F0E94E608082F60914F057091500527
:1015B00080915105E72C9401A601F50109950E943F
:1015C0004809462F282F672FCE010E94C007219679
:1015D000B2CFB0E0A0E0EFEEFAE00C94CB2B7C01B0
:1015E000C0911C0181E1C89FC02D112411E11C0F85
:1015F000D12E133510F032E5D32E60915205669549
:1016000080914A0590914B050E943E09C82ED0E07A
:10161000CD1548F081E0123508F080E0CDB7DEB797
:10162000E8E00C94E72BFE01E557FD4F8081909197
:101630001D01892311F1CE01880F991F89569E4FF4
:10164000FC01EF5AFF4F20812052330B805B9F4FEC
:10165000FC0140814057550B60914F05709150053A
:10166000809151050C2DF70109950E944809462FDC
:10167000282F672FCE010E94C0072196C9CF0E9454
:101680001F059C019091B4038091B503982B21F024
:101690003093B1032093B0039091B6038091B703C8
:1016A000982B21F03093AF032093AE03E0910D050A
:1016B000F0910E05309749F082E08093B2030480E8
:1016C000F581E02D82EB93E0099508954091B403F4
:1016D000803F59F48091B50387FF0DC01092B50388
:1016E00041110BC01092AC0308C0813F81F480917E
:1016F000B50318169CF3442381F08091B6039091B2
:10170000B703892B09F05AC01092AB030895823FAA
:1017100049F447FFF0CF1092B4038091B5038111D3
:10172000ECCFE0CF833F19F41416ACF3E4CF9091E3
:10173000B603893F29F41916F4F61092B603DBCFED
:101740008A3F19F497FFD7CFF8CF9091B7038B3F1B
:1017500029F497FFD0CF1092B703CDCF8C3F19F467
:101760001916CCF3C8CF9CE0980F953090F4845FA5
:10177000990B21E030E0B90102C0660F771F8A950E
:10178000E2F7CB0180959091B30389238093B30353
:10179000B2CF8D3F31F48091AD038E7F8093AD0346
:1017A000AACF8E3F21F48091AD038D7FF7CF8F3F7D
:1017B00009F0A1CF8091AD038B7FF0CF0895809188
:1017C000AD0380FD16C081FD16C082FD16C080915C
:1017D000AB038823A1F0883280F428E0829FC00107
:1017E000112468E270E00E94A02B862F672B39F04D
:1017F000089582E0089584E0089588E0089581E0E6
:1018000008958091AD0380FD14C081FD14C082FD58
:1018100016C08091AC03882381F08E3180F420E5DE
:10182000829FC00111246EE170E00E94A02B862FE0
:10183000089584E1089588E2089588E0089580E598
:101840000895803F31F40E94010C81958093B50387
:101850000895813F19F40E94010CF8CF823F31F4C2
:101860000E94010C81958093B4030895833F19F47D
:101870000E94010CF8CF893F29F40E94DF0B80936E
:10188000B60308958A3F21F40E94DF0B8195F7CFBC
:101890008B3F31F40E94DF0B81958093B70308954D
:1018A0008C3F19F40E94DF0BF8CF9CE0980F953025
:1018B00070F4845F990B21E030E001C0220F8A951B
:1018C000EAF78091B303822B8093B30308958D3F91
:1018D00031F48091AD0381608093AD0308958E3F14
:1018E00021F48091AD038260F7CF8F3FB9F78091EB
:1018F000AD038460F1CF80E00895F894E82FE2957D
:10190000EF70F0E031A1282F2F7081E090E001C04E
:10191000880F2A95EAF7982F9095932391A392A187
:10192000892B82A3789408959091160592FF06C0A2
:10193000282F28712830F9F4877F846093FF06C030
:10194000282F28712831F1F4877E846120911705B2
:1019500020FF06C0382F38713830D9F4877F816076
:1019600021FF06C0282F28712831D1F4877E81619C
:1019700094FD877E0895282F24712430F9F68B7FFB
:101980008860DCCF282F2471243101F78B7E886199
:10199000DDCF382F3171313019F78E7F8860E0CF7D
:1019A000282F2171213121F78E7E8861E1CFCF93DD
:1019B000DF93EC0182389105A9F1D8F581339105C7
:1019C00009F496C048F58932910509F48AC08A97CE
:1019D00009F495C0C11521E5D20708F0BCC0C115B6
:1019E00030E5D30708F014C1C83ED10508F09CC00B
:1019F000C03ED10560F5C83AD10508F087C0C53AA8
:101A0000D10508F0FDC0C130D10509F12097F9F0EA
:101A1000C430D105E0F440C08533910509F45AC0C3
:101A2000C997C1F680911605837089F0C0EED0E0A9
:101A30000EC0833E910599F170F4803E910501F14D
:101A4000823E910539F68091160582FD21C0CE01B6
:101A5000DF91CF910895863E910561F1873E910512
:101A600071F1843E910509F0B5CF8091170581FF92
:101A7000EECF80911605C7EED0E084FD0DC0E7CF14
:101A80008091160580FD12C19091170590FFDFCF60
:101A9000C3EED0E084FFDBCFD0E0C0E0D8CF8091B0
:101AA000160582FD06C19091170590FDBFCF84FFFA
:101AB000CECFF2CF8091160583FDDDCFC8CF8091C8
:101AC000160583FDF9C09091170591FFF0CFC4EE84
:101AD000D0E0BDCF8091160585FFB9CFC9E2D0E037
:101AE000B6CF8091160585FFB2CFC5E3D0E0AFCF6A
:101AF0008091160586FFABCFCAE2D0E0A8CF8091D7
:101B0000160586FFA4CFC1E3D0E0A1CFCF3BD1051E
:101B100018F6C85AD0E0CC0FDD1FCB5DDE4F099020
:101B2000D881C02DD46493CFC11540E2D40758F4B6
:101B3000C11581E0D80708F08ACFC03FD10508F46D
:101B4000ABCFD06584CFC11590E4D90708F4A4CFFA
:101B5000DF70D06A7CCFC11525E5D20700F5C1152D
:101B600034E5D30708F08AC0C11543E5D40708F06F
:101B700071C0C11582E5D80708F467C0CE01837033
:101B8000992721E030E002C0220F331F8A95E2F747
:101B9000C695C69580E2C89FE001112452C0C115C8
:101BA00099E5D907A8F4C11528E5D20708F06BC05C
:101BB000C11536E5D30708F06FCF8C2F0E94940C27
:101BC000C82FD0E0DC2FCC27CC27DF71D0623FCFED
:101BD000C1154AE5D40708F45BC0CE0190568115C3
:101BE000904208F059CF8D2F8F710E94940C90E095
:101BF000982F882788279F719C012C2BE901E6CF1D
:101C0000C55AD0E0CE5DDE4FC881D0E0D0641FCF92
:101C1000CE01E4E096958795EA95E1F783702C2F45
:101C200026952695237040E2249F90011124382B9D
:101C30008C2F8370C1E0D0E002C0CC0FDD1F8A95ED
:101C4000E2F7C22BD32BDC6802CFDC2FCC27C16F8D
:101C5000D06AFDCECE018370992721E030E002C02A
:101C6000220F331F8A95E2F7C695C69590E2C99F69
:101C7000E0011124C22BD32BDA68E9CEDC2FCC276C
:101C8000C46FD06AE4CEDC2FCC27C06FD06ADFCE21
:101C90008C2F8F700E94940C34E0D695C7953A959E
:101CA000E1F7CF709C2FEC01D069D1CEC9E3D0E031
:101CB000CECEC2EED0E0CBCEC6EED0E0C8CE809184
:101CC0007E03811110927E030895809590917D038B
:101CD000982390937D03089580915A03909129034E
:101CE000981301C008958F5F8770FACF953080F503
:101CF000803170F540E1949F90011124820F932F61
:101D0000911D682F677023E0969587952A95E1F7D6
:101D1000FC01EE0FFF1FE80FF91FEB5FFC4F50E0D7
:101D200040E080E0219130E0062E02C036952795F4
:101D30000A94E2F721703327042E01C0220F0A947F
:101D4000EAF7822B4F5F5F4F4330510559F70895F3
:101D500080E00895953098F5803188F540E1949FB2
:101D600090011124820F932F911D282F277041E09D
:101D700001C0440F2A95EAF723E0969587952A95A6
:101D8000E1F7FC01EE0FFF1FE80FF91FEB5FFC4FBF
:101D900090E080E070E05191DF0111979B01082EE7
:101DA00002C0369527950A94E2F7217021952527E0
:101DB000242325272C9301968330910561F70895FC
:101DC0008093180570931A0560931905809140055A
:101DD0008430F9F48093E9008FEF9091E80081500E
:101DE00095FD06C095ED9A95F1F700008111F5CFAC
:101DF0008091E80085FF0DC050E040E063E070E0B6
:101E000088E195E00E94BB038091E8008E77809383
:101E1000E8000895BC0184E00E94E00E0895BC0132
:101E200083E00E94E00E08959C0184E08093E90025
:101E30009FEF8091E800915085FD06C085ED8A9561
:101E4000F1F700009111F5CF8091E80085FF0CC0FB
:101E500050E040E066E070E0C9010E94BB03809161
:101E6000E8008E778093E8000895CF93DF93EC012C
:101E700080911B018823B1F18091160587FF32C044
:101E800060E284E08093E9008FEF9091E800815058
:101E900095FD06C095ED9A95F1F700008111F5CFFB
:101EA0008091E80085FF1BC080911B0170E050E02D
:101EB00040E0811104C050E040E068E070E0CE01F5
:101EC0000E94BB038091E8008E778093E80080E257
:101ED000FE01AEE1B5E001900D928A95E1F7DF9148
:101EE000CF91089568E081E0CDCF209A35B13E7F53
:101EF00025B121604FB7F89485E194E0FC01519140
:101F0000CF0168E025B9000000C057FF35B9550F73
:101F1000000000C000C000C035B900C06A9591F74C
:101F2000F5E08B309F0751F74FBF8FE594E00197A5
:101F3000F1F700C000000895CF93DF93C7EAD2E025
:101F400060E0CE010E94D32D2196C11584E0D80710
:101F5000B9F7DF91CF9108951F93CF93DF93122F9D
:101F60008430E0F46530D0F44031C0F490E2699FF1
:101F7000E001112450E0440F551FC40FD51F90EA13
:101F8000899FC00DD11D1124632FCE0187960E9419
:101F9000D32D612FCE0188960E94D32DDF91CF9152
:101FA0001F910895AF92BF92CF92DF92EF92FF926E
:101FB0001F93CF93DF9384E7C82E83E0D82ED0E021
:101FC0007601C0E014C0F50125913491412F6C2FAA
:101FD0008D2F0E94AC0F82E0A80EB11C1F5F103144
:101FE00091F780E2E80EF11CCF5FC53019F0570180
:101FF00010E0E9CFDF5F80EAC80ED11CD43001F7D2
:10200000DF91CF911F91FF90EF90DF90CF90BF9025
:10201000AF900895CF93C82F6FEF811162E283E2F2
:1020200090E00E94D32D6FEFC11167E084E290E051
:102030000E94D32D6FEFC11165E285E290E00E940E
:10204000D32DCF91089580E00E940A1060E086E2CF
:1020500090E00E94D32D0E94D20F0E949C0F81E03D
:102060000E940A100895CF93C92F682F84E090E052
:102070000E94D32D6C2F82E290E00E94D32DCF914D
:1020800008950F931F93CF93DF93843030F565301D
:1020900020F5403110F520E2629F8001112450E0CC
:1020A000440F551F040F151F30EA839F000D111DAB
:1020B0001124C80187960E94B52DC82FD0E0DC2FCF
:1020C000CC27C80188960E94B52D9E01282BC901F6
:1020D000DF91CF911F910F91089590E080E0F8CFAC
:1020E000462F843040F4753030F4603120F4672F8F
:1020F0000E944110089590E080E00895CF92DF9211
:10210000FF920F931F93CF93DF936C0100915405BF
:1021100080917F03082BC7E0D0E010E0FC2EC801BF
:102120000C2E02C0959587950A94E2F780FD0CC0AD
:102130002197A0F7F12C8F2DDF91CF911F910F9157
:10214000FF90DF90CF900895B6018C2F0E94701001
:102150000E94D70C019761F3EECFCF93DF93EC0190
:102160000E947E10BE010E9470100E94D70CDF9169
:10217000CF910895FC01808191810E94AD109295CC
:102180009F70963091F058F4925F9F70923058F49F
:10219000803F19F030F4883E30F481E008959A5F72
:1021A000F4CF843FD1F380E00895883EB0F3813FBF
:1021B000D1F7F3CF83E290E00E94B52D823289F40B
:1021C00084E290E00E94B52D873059F485E290E0DA
:1021D0000E94B52D91E0853209F090E0892F817041
:1021E000089580E0FCCFCF9384E090E00E94B52D6D
:1021F000C82F82E290E00E94B52D982F8C2FCF91AE
:1022000008951F93CF93DF93EC01FC01E557FD4F39
:1022100080816823B1F00E94602C182F0E94602CEE
:102220008F77782F20E8720F08F47FEF612F80916D
:1022300051050E944809462F282F672FCE010E9482
:10224000C007DF91CF911F910895B0E0A0E0EBE2CD
:10225000F1E10C94CC2B8C01FC01E557FD4F808102
:10226000682349F1D0905005D0915105C0914F0598
:10227000EC2EF12C0E94602C282FC7018C549F4F0C
:1022800068E671E00E94A02B8E199F0997FD0396C6
:10229000959587959595879523706C2F289F600D50
:1022A00011247D2D8D2F0E944809462F282F672F3E
:1022B000C8010E94C007CDB7DEB7E7E00C94E82B59
:1022C00046E050E06CE170E08EE495E00E94C32DA2
:1022D000109214040895B0E0A0E0E1E7F1E10C945D
:1022E000C42B0E9413056093B8037093B9038093C5
:1022F000BA039093BB0330914E05132F137019F05E
:10230000132F1695169520911A012130D9F022230A
:1023100059F0223009F4D8C3233009F4DFC3CDB714
:10232000DEB7EFE00C94E02B10921C0160934A059D
:1023300070934B0580934C0590934D0581E08093FD
:102340001A01EDCF9091190181E019130BC0832F71
:1023500083702091180130E091E08217130609F490
:1023600090E0892F817080931E0180915305909198
:102370001D01981739F080931D0140E060E080E076
:102380000E94BD071E3150F4E12FF0E0E45AF14DF8
:102390000C94B42B80911E0181111EC0C0E080916D
:1023A0001C018F5F80931C01C1118AC382E080935E
:1023B0001A0180911E01811183C3112309F48CC37A
:1023C0000E94B60581FFABCF2FEF4FEF6FEF8BE28F
:1023D00090E00E94C007A3CF40E060E080E00E9450
:1023E000BD07DCCFC0911C0181E1C89FC02D112425
:1023F00001E10C0FF02E033510F022E5F22E609172
:102400004F0570915005809151050E944809E62EB4
:10241000D72EC82ED0E0CF1528F0C1E0023508F441
:10242000BECFBCCFFE01E557FD4F808190911D01CD
:10243000892331F02C2D4E2D6D2DCE010E94C00729
:102440002196E9CFC0911C0181E1C89FC02D1124C4
:1024500001E10C0FF02E033510F092E5F92ED0902B
:102460005005E0905105D0914F056D2F7D2D8E2D9B
:102470000E944809C62EB72EA82E609152056D0FF6
:102480007D2D8E2D0E944809E62ED72E982ED0E065
:10249000CF1518F6FE01E557FD4F908180911D0183
:1024A000892359F0292D4E2D6D2D90FD03C02A2D25
:1024B0004C2D6B2DCE010E94C0072196E9CFC09113
:1024C0001C0181E1C89FC02D112401E10C0FE02EF9
:1024D000033510F082E5E82ED0905005C0905105EC
:1024E00020915205D0E4FD2E3F2D329F312D112435
:1024F000F32ED0E0CE1508F090CFFE01E557FD4F4A
:10250000808190911D018923B9F0FE01EE0FFF1F1C
:10251000E851FE4F808182958F7060914F058F9DAD
:10252000600D11247D2D8C2D0E944809462F282FE7
:10253000672FCE010E94C0072196DCCFC0911C01FD
:1025400081E1C89FC02D112401E10C0FE02E03355D
:1025500010F0A2E5EA2ED0905005C09051052091D0
:102560005205F0E4FF2E3F2D329F312D1124F32E22
:10257000D0E0CE1508F051CFFE01E557FD4F808128
:1025800090911D018923D9F0FE01EE0FFF1FE95143
:10259000FE4F6081F69EB0011124E5E075956795C8
:1025A000EA95E1F780914F05680F7D2D8C2D0E94F3
:1025B0004809462F282F672FCE010E94C007219679
:1025C000D8CFC0911C0181E1C89FC02D112401E129
:1025D0000C0FF02E033510F052E5F52EE0904F056C
:1025E000D0915005D0905105609152056695669541
:1025F000669580914A0590914B050E943E090E9484
:102600008F08805887FD8195880F282F3D2D239FA7
:10261000212D1124822F6E2D7D2F0E944809E62E38
:10262000D72EC82ED0E0CF1508F0F7CEFE01E55723
:10263000FD4F808190911D01892331F02C2D4E2D6D
:102640006D2DCE010E94C0072196EDCF84E997E061
:102650000E94DC0907C08AE697E0FACF81E798E09C
:102660000E94E90AC82F9BCE82E598E0F9CF87E364
:1026700098E00E947C0AF6CF8BE198E0FACF88E6DA
:1026800097E0E6CF8FE597E0E3CF86E597E0E0CFF0
:102690008DE397E0DDCF8FE297E0EBCF86E199E025
:1026A000DFCF8AE098E0DCCF86EF97E0E2CF82E0F0
:1026B00097E00E94260AD6CF84ED96E0FACF8DE906
:1026C00096E0F7CFC0911E01C1111EC06091520566
:1026D00020E1620F08F46FEF80914A0590914B055D
:1026E0000E943E096AE070E00E948C2B892B09F061
:1026F00055CE0E94602C62E570E00E94A02B609194
:102700001D010E9425114BCEC0911C0181E1C89F83
:10271000C02D112401E10C0F802F033508F082E554
:10272000D0E0E82EF12CCE15DF050CF076CE6091CE
:102730001D01CE010E9425112196F5CFC0911E01E9
:10274000C1111EC06091520520E1620F08F46FEFC5
:1027500080914A0590914B050E943E0965E070E02A
:102760000E948C2B892B09F019CE0E94602C62E507
:1027700070E00E94A02B60911D010E9401110FCEFC
:10278000C0911C0181E1C89FC02D112401E10C0FF3
:10279000802F033508F082E5D0E0E82EF12CCE152D
:1027A000DF050CF03ACE60911D01CE010E940111AF
:1027B0002196F5CFC0911C0181E1C89FC02D112445
:1027C00001E10C0FF02E033510F042E5F42ED0900D
:1027D0005005E0905105D0914F05609152056695E6
:1027E0006695669580914A0590914B050E943E0939
:1027F0000E948F08805887FD8195880F682F2CE0F4
:10280000629F612D11246D0F7D2D8E2D0E94480930
:10281000E62ED72EC82ED0E0CF1508F0FECDFE0153
:10282000E557FD4F808190911D01892331F02C2DBA
:102830004E2D6D2DCE010E94C0072196EDCF8EEA60
:1028400098E006CF8CE896E003CF4091BC0350910E
:10285000BD036091BE037091BF0380914A059091C2
:102860004B05A0914C05B0914D0584179507A6071F
:10287000B70708F493CD0E94D108082F0E94D10811
:1028800092E5891BF0F7890FC82FD0E0FE01E557CC
:10289000FD4F80911D019081892309F40FC120E033
:1028A00040E060E001FD13C00E94D108082F0E94A3
:1028B000D108782F76952FE7720F08F47FEF602FFD
:1028C000809151050E944809462F282F672FCE017D
:1028D0000E94C0072091520530E1230F08F42FEF2A
:1028E00060E1822F90E00E943E09BC0184EF91E0FC
:1028F0000E948C2B80914A0590914B05A0914C052C
:10290000B0914D05860F971FA11DB11D8093BC038B
:102910009093BD03A093BE03B093BF033FCD4091FE
:10292000100450911104609112047091130480916D
:102930004A0590914B05A0914C05B0914D05841727
:102940009507A607B70708F429CD80911E018823B3
:1029500029F040E060E080E00E94BD0760914F05F3
:1029600070915005809151050E944809062F772EDD
:10297000682EC0ECD3E027E9E22E21E0F22E3FE002
:10298000A32EB12C47016E0187E0582EF60121914C
:102990006F01F40181914F0190E0222309F47EC080
:1029A000262D402F672D0E94C007F60180813197A8
:1029B00080835A945110EACF650197E0592E960111
:1029C00020543C4F4901F601E956FE4F808190E0CA
:1029D000F9012081222309F465C0262D402F672D9F
:1029E0000E94C007F40131978081F40180835A94DA
:1029F000F1E0CF1AD1085110E2CFF701808590E0C5
:102A00002885222309F452C0262D402F672D0E94CD
:102A1000C007F701878190E02F81222309F44AC083
:102A2000262D402F672D0E94C0070E94D108837079
:102A300091E009F090E09F8398876096F0E1EF0EB7
:102A4000F11C20E1A20EB11C3FE5A316B10409F070
:102A500099CF2091520530E1230F08F42FEF60E168
:102A6000822F90E00E943E09BC0188EB9BE00E940F
:102A70008C2B80914A0590914B05A0914C05B0910B
:102A80004D05860F971FA11DB11D809310049093D3
:102A90001104A0931204B093130480CC20E040E012
:102AA00060E081CF20E040E060E09ACF20E040E0AD
:102AB00060E0ADCF20E040E060E0B5CFC1E06FCC9A
:102AC000112309F42CCC7CCC10931901832F837033
:102AD000809318010E94750F83E031CC809114041B
:102AE00081110E94601140914A0550914B056091FF
:102AF0004C0570914D052FB7F89480911205909177
:102B00001305A0911405B09115052FBF841B950BDB
:102B1000A60BB70B4097A105B10508F400CC1092A5
:102B20001A01FDCBEEE4F5E085E3808380911F017F
:102B300090912001A091210181839283A3838FE74B
:102B400084838FEF85830E946011089580917D03B7
:102B500090917C03892B8093E40290917E039923CA
:102B6000A1F0892B8093E40280911B018823E1F17D
:102B70008091160587FF38C08EE1E6EEF2E090E026
:102B80008150A0F591110E945F0E40E250E06CE58B
:102B900073E084EE92E00E94982D892B21F180E26F
:102BA000E4EEF2E0ACE5B3E001900D928A95E1F736
:102BB000E0910D05F0910E053097A9F080911B0171
:102BC000882359F08091160587FF07C08091E402A1
:102BD0008093E50286E08093E4020280F381E02D99
:102BE00084EE92E00995089586E0C7CF21912223D3
:102BF00039F29F5FC5CF90E080E00E94A00590E091
:102C000080E00E948A0510927C030E94A61586E04F
:102C1000E2EBF3E0DF011D928A95E9F71092AC0335
:102C20001092AB031092AD030E943F0B0895809366
:102C300054050E94FB15089580915405982F9670B5
:102C4000963021F488600E9417160895877FFBCF85
:102C500021E030E001C0220F8A95EAF720958091AB
:102C6000540582230E941716089590915B03809566
:102C7000892380935B03282F277091F4282F082E37
:102C8000000C330B9217130659F09091170592FF21
:102C900007C08595859585950E94281610925B033F
:102CA00008959091170592FB222720F9281769F0C3
:102CB00080FB92F990931705809116059091170566
:102CC0000E94331082E00E943516089521E030E022
:102CD00001C0220F8A95EAF780915405822B0E9449
:102CE0001716089580937F030E94FB15089588238B
:102CF00021F00E94650E0E94A6150895882339F0E0
:102D000090917D03982B90937D030E94A6150895C2
:102D1000882391F19CEF980F913A40F4682F84EE4C
:102D200092E00E942B050E94A615089590E2980F4C
:102D3000983050F4877091E001C0990F8A95EAF7B6
:102D4000892F0E94650EEFCF9BE5980F933028F4F2
:102D500090E080E00E94A005089598E5980F9731D3
:102D600028F490E080E00E948A050895803F20F0DA
:102D70000E94660B0E943F0B0895CF93C82F8823B3
:102D8000D1F18CEF8C0F813AC0F580911B01882323
:102D900011F18091160587FF1EC0EC2FE695E69590
:102DA000E695F0E0EC51FD4F828190E04C2F4770AA
:102DB00021E030E002C0220F331F4A95E2F7822360
:102DC0009323892B89F06C2F84EE92E00E942B05CF
:102DD0000E94A61509C0E6EEF2E08191C81799F3AA
:102DE00082E0EC3EF807C9F76C2F84EE92E00E9477
:102DF00055050E94A615CF91089580E28C0F88306A
:102E000068F4C77021E030E001C0220FCA95EAF7EC
:102E100080917D03822B80937D03EBCFEBE5EC0F5C
:102E2000E33040F4F0E0EE5DFE4F808190E00E94E0
:102E3000A005E1CFE8E5EC0FE73150F4F0E0EE0F4C
:102E4000FF1FEB5DFE4F808191810E948A05D3CFE9
:102E5000C03F88F28C2F0E94210C0E943F0BCBCFE9
:102E60001F93CF93DF93182FD0E0C0E0893311F484
:102E7000C0E5D0E0812F0E94BD16209739F4812F44
:102E80000E948816DF91CF911F9108958FE99FE0EE
:102E90000197F1F700C000002197EFCF0F931F9328
:102EA000CF93DF93C62FD42F022FFC01828188237A
:102EB000A9F0609357050E941F05909356058093D3
:102EC0005505C77081E001C0880FCA95EAF70E94D6
:102ED0007E16DF91CF911F910F9108958091570534
:102EE000681332C080915505909156050E940405E3
:102EF000883C910548F510E21D0FCD17B9F080E22E
:102F00008C0F883040F4C77081E001C0880FCA95EB
:102F1000EAF70E947716183048F481E09D2F9770E9
:102F200001C0880F9A95EAF70E947E16802F0E94B2
:102F30003017183070F6D77081E001C0880FDA952D
:102F4000EAF70E947716C5CFC77081E001C0880FED
:102F5000CA95EAF7F6CF10927D0380911B01E6EE49
:102F6000F2E0882361F08091160587FF08C08EE1AA
:102F7000DF011D928A95E9F70E94FB15089586E00E
:102F8000F7CFAAE2B0E0E7ECF7E10C94D02B82E4B3
:102F900095E02091F100DC012D93CD01B5E08A345C
:102FA0009B07B9F780914305833009F472C0B8F4E8
:102FB000813009F449C0823009F4B3C08091E8003F
:102FC00083FF8BC280914205909143059A3008F0AF
:102FD00084C2E92FF0E0E658F14D0C94B42B8A300E
:102FE00009F48EC08B3009F471C0893039F78091B3
:102FF0004205813219F78091460590914705009767
:1030000011F00297D9F68091E800877F8093E8005D
:103010008091E80082FF38C09091F3008091F20027
:10302000029731F48091F100813011F0863021F463
:103030008091F10080931D058091E8008B7780934B
:10304000E8000E94E503BACF80914205813A09F079
:10305000B5CF8091E800877F8093E8008091460596
:1030600090914705892B61F460E28EE195E070E074
:103070000E9491048091E8008B778093E8009ECFB6
:1030800060E090E080E0F3CF809140058111C0CFF7
:1030900095CF80914205813A09F090CF8091460505
:1030A00090914705892B09F089CF8091E800877FAF
:1030B0008093E8008091E80080FFFCCF80911B01A5
:1030C0008093F1008091E8008E77B9CF809142051E
:1030D000813209F073CF8091460590914705892B85
:1030E00009F06CCF8091E800877F8093E8000E9410
:1030F000E5038091440580931B010E94AB175ECFCE
:1031000080914205813209F059CF8091E800877F94
:103110008093E8000E94E5038091450580931C059B
:103120004DCF80914205813A09F048CF8091E80067
:10313000877F8093E8008091E80080FFFCCF80913A
:103140001C05BECF803899F0823809F0C6C1809145
:1031500046058F70873008F0C0C18093E9008091E8
:10316000EB0085FB882780F91092E90006C080916A
:103170003E0590913F05911182609091E800977F04
:103180009093E8008093F1001092F1008091E800A4
:103190008E779FC1882309F48DC1823009F09DC1CB
:1031A00080914405811190C1809146058F702FEF69
:1031B000280F263008F091C18093E9002091EB00A0
:1031C00020FF82C1933031F48091EB0080628093C4
:1031D000EB007AC19091EB0090619093EB0021E0BD
:1031E00030E001C0220F8A95EAF72093EA0010929E
:1031F000EA008091EB008860EACF81116EC11091E6
:1032000044051F778091E3008078812B8093E30051
:103210008091E800877F8093E8000E94E503809119
:10322000E80080FFFCCF8091E30080688093E3009A
:1032300082E0111183E0809340054FC180588230B5
:1032400008F04BC120914405309145052C3DE3E049
:103250003E07A1F583E08A838AE289834FB7F89419
:10326000DE01139620E03EE051E2E32FF0E05093C0
:103270005700E49120FF03C0E295EF703F5FEF70CD
:103280008E2F90E0EA30C0F0C7968D939D932F5F0C
:10329000243159F74FBF8091E800877F8093E80081
:1032A0006AE270E0CE0101960E9491048091E800EC
:1032B0008B778093E80011C1C096E7CF80914605D7
:1032C00090914705432F55274330510509F44AC0D3
:1032D00078F54130510509F47AC08BE590E0E4EFD0
:1032E000F5E04230510509F0F8C02091E800277F51
:1032F0002093E800209148053091490582179307F3
:1033000008F49C0140E02115310509F065C0411128
:1033100063C08091E80082FDC9CF80914005882379
:1033200029F2853019F28091E80083FFF2CFBECFF9
:103330004132510509F43CC04232510509F0CDC07B
:103340008330910508F0C9C0FC01EE0FFF1FE5575F
:10335000FE4F0190F081E02D88579E4FDC018C914B
:1033600090E01AC0332721303105D1F02115310505
:1033700061F02230310509F0B0C0E1E6F6E0E491F9
:103380008E2F90E0E1E6F6E007C0E3E9F6E0E49195
:103390008E2F90E0E3E9F6E0009709F49EC0A5CFF8
:1033A000EDE7F6E0E4918E2F90E0EDE7F6E0F4CF64
:1033B0008330910508F091C0880F991FFC01EF56EA
:1033C000FE4F0190F081E02D89E090E08ECF82E108
:1033D00090E0EFE4F6E089CF80914005882309F47E
:1033E00065CF853009F462CF8091E80083FD5ECF20
:1033F0008091E80082FD8DCF8091E80080FF83CF2F
:103400009091F3008091F2002115310519F0883078
:10341000910550F041E0089709F040E08091E80004
:103420008E778093E8006FCF44914093F1003196FE
:10343000215031090196E8CF803809F04EC08091C3
:10344000E800877F8093E800809141058093F10038
:103450009DCE811142C0109144051230F0F580914B
:10346000E800877F8093E800109341050E94E50300
:10347000112311F084E005C08091E30087FDFACFAD
:1034800081E08093400542E061EC81E00E94040409
:1034900042E261EC84E00E94040442E261EC82E0DA
:1034A0000E94040442E260EC83E00E9404048091E4
:1034B000400513C080914405813079F481E0933058
:1034C00009F080E080933F051092E9008091E800C8
:1034D000877F8093E8000E94E5038091E80083FFE6
:1034E0000AC08091E800877F8093E8008091EB001C
:1034F00080628093EB00AA96E3E00C94EC2B0E9490
:10350000AB172FEF84E39CE0215080409040E1F71F
:1035100000C0000088E19AE00FB6F894A895809367
:1035200060000FBE90936000FFCF90E080E00E94AB
:10353000BD2D883E9E4F19F40E94DA10089580E058
:10354000089568EE7EEF90E080E00E94F12D60E04B
:1035500082E090E00E94D32D60E083E090E00E9442
:10356000D32D10927F0360E084E090E00E94D32D81
:1035700064E082E290E00E94D32D60E085E090E07C
:103580000E94D32D60E086E090E00E94D32D6FEF83
:1035900087E090E00E94D32D40E050E0BA0188E03F
:1035A00090E00E94E52D60E08DE090E00E94D32D38
:1035B00040E050E0BA0188E190E00E94E52D60E033
:1035C00087E190E00E94D32D40E050E0BA018CE109
:1035D00090E00E94E52D70E060E080E290E00E94C3
:1035E000F12D40E050E0BA0188E190E00E94E52D25
:1035F00080E00E940A100E94231040E050E0BA01CF
:103600008FE090E00E94E52D40E050E0BA0183E1B8
:1036100090E00E94E52D0895A5E0B0E0E2E1FBE135
:103620000C94C22B8C01FC0183819481892B31F095
:103630008081918189238F3F09F086C52596E1E13C
:103640000C94DE2B0E947E10F82E682F89819A81BF
:103650000E94AA0E69817A818F2D0E9470107C01D0
:10366000F8018281882309F435C5970122513F452D
:103670002031310508F05BC58FEF93E00E94B52D36
:10368000811128C0FEEEEF0E57EA852E52E0952EEE
:10369000E11032C01C821B82442443944AE0342E41
:1036A00074018FEFE81AF80AC4010E94B52D8983CE
:1036B0001A82882379F09FEF980F933058F58A8308
:1036C000498292E0890E911CC7010E94B52D8B831F
:1036D000811121C080915B03877009F4AFCFF8019D
:1036E0008281882309F4AACF8091170582FFA6CF93
:1036F00082E00E943516A2CF811424E0920651F395
:10370000C4010E94B52D811101C0EA943FEF831AD4
:10371000930ABECF4701FE0131967F01F701208158
:10372000222309F4BDCF213009F047C09181828165
:10373000913031F4F2E0EF0EF11C0E94301707C017
:10374000923049F422E0E20EF11C0E94BD163FEFD8
:10375000E31AF30AE3CF933031F432E0E30EF11CC5
:103760000E948816F4CF943021F08FEFE81AF80AFF
:10377000EECF92E0E90EF11C30E020E0B7016F5F80
:103780007F4FF70141818053990B8A30910550F0AA
:1037900021503109E0F28FE99FE00197F1F700C075
:1037A0000000F6CF329EF001339EF00D11249C01F3
:1037B0002E0F3F1F842F7B01E1CFE22FF0E0EC5072
:1037C000FE4F5490822F86958695869590E0FC0159
:1037D000EC51FE4F64902770712C022E02C075943C
:1037E00067940A94E2F7E1E06E227724FC01EC5240
:1037F000FE4FA490B12C022E02C0B594A7940A9457
:10380000E2F7F1E0AF22BB24FC01EC53FE4FC49081
:10381000D12C02C0D594C7942A95E2F721E0C222A8
:10382000DD246114710419F081EE0E94BD16A1140B
:10383000B10419F086EE0E94BD16852D0E94301746
:10384000A114B10419F086EE0E9488166114710467
:1038500019F081EE0E948816C114D10409F477CFC3
:103860008CE26BCF81E00E9466160E941C1632CF5C
:1038700081E00E942816F9CF82E0FBCF95EFE91690
:103880009CE5F90609F465C008F45FC027E245EE3F
:1038900066EEF6EFEF16FCE5FF0609F444C4882354
:1038A00009F463C41092570523E0E2162DE5F206F1
:1038B00008F056C03AEFE3163CE5F30630F4C701D2
:1038C00082509C45449708F057C00E94F310909393
:1038D000170580931605E1E1EE16ECE5FE0609F406
:1038E00031C108F09FC029E0E2162CE5F20609F488
:1038F00017C108F068C085E0E8168CE5F80609F401
:1039000003C108F051C0E3E0EE16ECE5FE0609F451
:10391000F1C008F0F5C080911605816022E0E21642
:103920002CE5F20609F4E9C080911605909117057F
:103930000E9433100E94AB17CDCE27E245EE65EE14
:10394000F2C326E241EE60EEEEC327E245EE64EEFE
:10395000EAC326E241EE62EEE6C328E241E0EFCFA1
:1039600081E6E8168DE5F80609F4AFCF95EAE91689
:103970009DE5F90609F4A9CF36E1E3163CE5F30627
:1039800009F071C480917D038A7A91E009F490E096
:103990009093040369E2811165E384EE92E00E9452
:1039A00055050E94A61596CE80911605806237E0D7
:1039B000E3163CE5F30609F4A0C008F4ADC080911D
:1039C000160580649AC0809116058B7F9DE0E916EC
:1039D0009CE5F90609F491C0B0F4809116058E7F3C
:1039E000FBE0EF16FCE5FF0609F487C080911605A1
:1039F0008C602CE0E2162CE5F20608F47EC0809183
:103A000016058D7F7AC0809116058F7E3FE0E31604
:103A10003CE5F30609F471C008F488C080911605EE
:103A20008F7D6BC09DEFE9169CE5F90609F486C011
:103A300078F5F5E1EF16FCE5FF0609F491C0A0F476
:103A400080911605837F33E1E3163CE5F30609F424
:103A500054C008F47BC00E94AB1790911605892FC3
:103A600097FB87F9805849C09BEFE9169CE5F9065A
:103A700009F44EC008F05EC0809117058160FAEF2E
:103A8000EF16FCE5FF0609F04FCF809317054CCFEA
:103A900021E0E2162DE5F20609F46EC0B8F48FEFCE
:103AA000E8168CE5F80609F457C080911705836085
:103AB000E1149DE5F90648F380911705982F90953C
:103AC00091708E7F892B90FB81F9DFCFE1E6EE16B6
:103AD000EDE5FE0609F456C0F5EAEF16FDE5FF0632
:103AE00009F457C022E0E2162DE5F20609F01CCFDA
:103AF00060E043C08091160582608093160514CF64
:103B0000809116058460F9CF809116058860F5CF05
:103B1000809117058260B9CF809116058061EDCF45
:103B20000E94AB17809116058068E7CF809116053B
:103B3000877FE3CF809117058E7FA7CF80911705F0
:103B40008D7FA3CF809116058F7BD7CF0E94AB17B7
:103B5000809116058F77D1CF809117058C7F95CFF7
:103B60008091160582FB992790F921E0922790FB1E
:103B700082F990FB83F9C1CF61E08EE090E00E9472
:103B8000D32DD2CE90911605892F8F7E94FF806120
:103B9000B4CF90911605892F8E7F90FF8160ADCFB5
:103BA0008091040369E2811165E384EE92E00E9452
:103BB0002B05F7CE45E756E060E876E00E94C305A6
:103BC00089CD40E856E065E776E0F8CF46E456E078
:103BD00061E576E0F3CF41E556E066E476E0EECFCE
:103BE0004AE256E068E376E0E9CF48E356E06AE26D
:103BF00076E0E4CF4CE156E06EE076E0DFCF4FEDCB
:103C000055E06DEE75E0DACF4DEE55E06FED75E005
:103C1000D5CF61E081E00E945C065CCD61E08DE083
:103C2000FACF0E94AB178FEF94E3ECE08150904005
:103C3000E040E1F700C000000E94F3048091170506
:103C400082FB882780F991E089270E945116F801AC
:103C50008281E080F180882309F445C0C7010E9479
:103C60007E10D82E682FC7010E94AA0EB7018D2D95
:103C70000E9470100E94D70C7C01882EF801D2801F
:103C8000B580B2943FE0B32280915B038770C1F0AE
:103C9000AD2CDD20B1F08F2D807F803421F080E2CB
:103CA0008E0D883068F08091170582FF09C082E090
:103CB0000E94351680915B038770AA24A39481111A
:103CC000A12C9F2C92942FE09222FBE0F91508F48E
:103CD00079C0E92DF0E0EC57F14D0C94B42B81E064
:103CE000B4CF80E0B2CFC7010E94760ED82EBECFEF
:103CF0002F2D2F70C22E8F2D807F19F0C29490EF40
:103D0000C922DD20B9F0CC2069F080E28E0D883028
:103D100010F0811009C080917D03C82AC0927D03F4
:103D20000E94A6158E2D4CC080917C03C82AC0929B
:103D30007C03F6CF8E2D0E948816CC2009F442C059
:103D400080E28E0D883010F0811004C08C2D0E940E
:103D5000650E06C0C09480917C03C822C0927C038B
:103D60000E94A6152FC03F2D3F70C32E8F2D807F40
:103D7000803219F0C29480EFC822882089F081E057
:103D8000881609F468C0DD2009F472C0BB2009F46C
:103D900068C0F801858180FFC5CF8F70858361C0C1
:103DA0002091170522FD35C0DD2069F1CC2039F0C6
:103DB00080917D03C82AC0927D030E94A61580E0F1
:103DC0000E94BD16292D2850330B2430310510F4E4
:103DD0000E94B605AA2009F431CC80915B0380FDD6
:103DE0002DCCF80112828595859585950E946616E1
:103DF000C8010E940C1B80915B0385958595859574
:103E00000E9428161BCC80E00E948816CC20D1F29C
:103E10009DCFDD2099F090917E038C2D892BB110E0
:103E200003C00E947E16CECFE1E0BE12FACF22FF81
:103E3000C9CF981739F280937E03C4CFB11006C062
:103E40000E945F0E8C2D0E947716BCCFF1E0BF164A
:103E500009F4B8CFF5CFDD2031F025E02B1508F4BB
:103E6000B1CF8C2DDECF34E03B1508F4ABCFEACFD9
:103E7000BB2041F3F9E38F1209C02FEF37EE83E047
:103E8000215030408040E1F700C000008E2D0E949C
:103E9000881698CF8F2D86958695837061F0813036
:103EA00009F090CFC7019370D11002C090E080E07C
:103EB0000E948A0587CFC7019370D11002C090E09D
:103EC00080E00E94A0057ECF8E2DDD2029F00E948B
:103ED000210C0E943F0B76CF0E94660BFACF8F2DEC
:103EE000837091F5D1106ECF4E2D42954695477057
:103EF000440F440F8E2D8F70042E01C0880F0A943A
:103F0000EAF72E2D2071E4FE07C02FE030E001C05B
:103F1000220F4A95EAF720953F2D36953695337056
:103F2000323069F050F440917F03313029F0822B18
:103F300084230E94721646CF842B822BFACF282B23
:103F400080917F038227F5CF8695DD2011F08F2D9C
:103F50008170882309F436CF4E2D429546954770DF
:103F6000440F440F8E2D8F70042E01C0880F0A94C9
:103F7000EAF72E2D2071E4FE07C02FE030E001C0EB
:103F8000220F4A95EAF720953F2D369536953370E6
:103F9000323069F050F440915405313029F0822BD1
:103FA00084230E9417160ECF842B822BFACF282B46
:103FB000809154058227F5CF9F2D9F70F92EDD202B
:103FC00029F0892F0E9466168E2D2BCF8E2D0E94F0
:103FD00077168F2D0E942816F5CE8E2DE2EF8E16C5
:103FE000B1F1E81570F0F0EF8F16D1F021EF8216E5
:103FF00091F0DD2009F45EC0B11094CE8F2D8F7149
:104000002AC033EF831651F194EF8912F2CF8091D9
:10401000170582FD2FC08F2D8F71DD20D9F21BC0B7
:10402000DD2081F0E4E0EB1508F4CCCE2F2D2F71CC
:1040300081E090E001C0880F2A95EAF7909154053D
:104040008927AFCFF5E0FB1508F4BCCEEFCF8F2D5D
:104050008F71D110BFCF0E946616B4CE80E0DD20F4
:1040600009F49FCF9F2D9F7181E001C0880F9A9521
:10407000EAF797CFDD2099F02F2D2F71F22E822FA6
:104080000E9466168091170582FF07C038E0F39EF4
:10409000C0011124836080935B038F2DDCCF81E00E
:1040A0000E94351681E08B1508F08CCE82E00E94CC
:1040B000351688CEBB2059F0893309F0E7CE9FEF43
:1040C000E7EEF3E09150E040F040E1F7DDCE8F2DD8
:1040D0008F7180CFF0E1EF16FFE5FF0609F4C8CB42
:1040E00021E1E2162FE5F20609F4C6CB93EFE916BB
:1040F0009CE5F90609F425CC08F0C0CBF8EDEF16E5
:10410000FCE5FF0609F419CC29EDE2162CE5F206D0
:1041100009F423CC37EDE3163CE5F30609F0BFCBF9
:1041200026E241EE61EEC8010E944E17D3CA30E18B
:10413000E3163FE5F30609F495CB91E1E9169FE517
:10414000F906A1F682E08FCB85E0DE0111960190A1
:104150000D928A95E1F7F801228189819A812111D6
:1041600071CA0E94760EF82E75CAF6E1EF16FCE5CC
:10417000FF0609F415CD80917D0382722AECE216C8
:104180002CE5F20609F436CDE0F595ECE9169CE550
:10419000F90609F41BCDE0F4F3ECEF16FCE5FF069D
:1041A00009F408CD08F00DCD32ECE3163CE5F3063A
:1041B00009F04DCD80914E0591E0892780934E0501
:1041C00010921A018091140481608093140482CAB1
:1041D00097ECE9169CE5F90609F402CD08F4FBCC4E
:1041E000F8ECEF16FCE5FF0609F4FFCC4EE056E0D4
:1041F0006CE176E029ECE2162CE5F20609F4DECC5F
:1042000026CD3FECE3163CE5F30609F407CDB8F400
:10421000ECECEE16ECE5FE0609F4F6CC08F4EFCC77
:104220002DECE2162CE5F20609F4F3CC61E085E012
:104230003EECE3163CE5F30609F4EDCC08CD86ED43
:10424000E8168CE5F80648F461E082E191EDE916A4
:104250009CE5F90608F4DFCC3DCAEDE5EE16FE0656
:1042600009F438CAF4CCFAE5EF16FDE5FF0609F4C7
:1042700036CD78F4E1143CE5F30609F4D2CC8EEDAA
:10428000E8168CE5F80609F0E2CC0E94A11A0E941B
:104290007F1A9CE5E9169DE5F90609F4CFCC08F4F0
:1042A00020CDF7EAEF16FDE5FF0689F3D0CC1F938A
:1042B000CF93DF9380912803807F09F049C08091DC
:1042C0002503882309F444C080915A03D09129031F
:1042D0006091230370912403A0912603B0912703DA
:1042E000C62FC72316E0D81799F190E0109711F068
:1042F000CF3F19F401968770F6CF189F9001199F50
:10430000300D1124F901E65DFC4F41814713F2CFD6
:1043100040814613EFCF42814111ECCF438154815C
:104320004A1B5B0B483C510528F7809128038F708E
:10433000806180932803F901E15DFC4F80818F70DB
:104340008061808383E293E00E940C1B0E946C0ECC
:10435000DF91CF911F910895A1E1B0E0E2EBF1E28E
:104360000C94C92B8C0185E0F801DE011D960190AB
:104370000D928A95E1F7F801E28083E2A82E83E0AE
:10438000B82E60912603709127036115710509F419
:1043900026C19091230340912403892F84238F3FCA
:1043A00009F41DC120813181C380D480F0902503A0
:1043B000F601E61BF70BFF2009F4DCC0809128030F
:1043C000582F507FE83CF10508F09FC051116BC099
:1043D000FE2C431314C0921312C0E11010C08F7052
:1043E000806180932803C5010E940C1B80912803E3
:1043F000F80185838F2D6196EAE00C94E52BC114BA
:10440000D10429F0822F83238F3F09F003C180E07C
:10441000F82FF170DF2E80FF3CC080915A0340914D
:10442000290356E0841315C02D873E878D859E8510
:104430000E94AD10292F22952F702230F0F02430E9
:1044400018F59F70F1F0F8019581907FD1F4D12C8F
:104450001EC090E0589FF001599FF00D1124E65DB9
:10446000FC4F6181361306C06081261303C0628150
:10447000E6120FC001968770D5CF9F7011F0882388
:1044800031F3805E883018F3C8010E940C1BFD2CAC
:10449000B1CFEE2009F4AECF8091280381608093E4
:1044A0002803F12CA7CF431306C0921304C0F801D0
:1044B000EE2009F479C0C8010E94BA10882309F1DE
:1044C000EE20F9F080912803803270F020912303D0
:1044D0003091240338872F831986DB86CA868C8720
:1044E000CE0107960E940C1B86E0F801A3E2B3E020
:1044F00001900D928A95E1F70E945721FF24F394D1
:1045000079CFC8010E940C1BF9CF51110AC083E278
:1045100093E00E940C1B86E0F50111928A95E9F761
:10452000C0CF43130FC092130DC0E1100BC0F801B0
:104530008583C8010E940C1B86E0F50111928A95C3
:10454000E9F758CFC8010E94BA108823D1F2EE20B3
:10455000C1F280912803803238F2209123033091F8
:1045600024033A8329831B82DD82CC828E83CE0191
:104570000196B8CFE83CF105F8F6FE2CEE2009F2E2
:1045800043131FC092131DC08091280380FD10C0EB
:10459000982F907F69F0F8018583903F31F0982F34
:1045A000907F905F8F70892B8583C8010E940C1BC0
:1045B00086E0F801A3E2B3E001900D928A95E1F75D
:1045C00019CFC8010E94BA1081118ECF80912803A3
:1045D000816080932803C8010E940C1B0BCFEE2042
:1045E00009F48FCFC8010E94BA10F82E882309F46D
:1045F00088CF86E0F801A3E2B3E001900D928A959E
:10460000E1F780912303909124030E94AD100E9452
:104610005721F0CE81E08E25FBCEA7E1B0E0E3E1AB
:10462000F3E20C94D02B4B8B5C8B6D8B7E8B8F8B42
:10463000611110927C031A8A198A85E0FE01739633
:10464000DE011D9601900D928A95E1F786E0FE014C
:104650003D96DE01179601900D928A95E1F7CE0105
:1046600007960E94AC21811112C086E0FE013796A8
:10467000DE01119601900D928A95E1F78A859B855E
:10468000892B29F088859F8189238F3F81F516E04A
:1046900080915A0390912903891317C06796E3E02C
:1046A0000C94EC2B96E0929FD001939FB00D1124B7
:1046B000A65DBC4FFE01319601900D929A95E1F7EF
:1046C000809329030E946C0EE2CF819FC0011124C8
:1046D000865D9C4F0E94AC21882301F380915A0390
:1046E00090E001968770992780935A03D1CF20914B
:1046F000290330E0C90101968770992740915A0338
:104700004817190679F60E94AB17109229031092E8
:104710005A0386E0E3E2F3E0DF011D928A95E9F7B0
:10472000B6CFAFE0B0E0E7E9F3E20C94C52B8E0121
:104730000F5F1F4F8AE0F80111928A95E9F743E570
:10474000E42E41E0F42ECC24C394D12CAA24A394CB
:10475000B12CF70181917F018F3F09F450C0F8948B
:10476000E82FE295EF70F0E021A18F70A50102C063
:10477000440F551F8A95E2F7CA01922F982B91A3F7
:1047800092A18095892382A3789400C033E6632E9A
:1047900031E0732ED801B60160957095F3019190C8
:1047A0003F018D919D91AD0142505109FFEF9F1640
:1047B00009F486C0292D22952F7030E0F90120A13F
:1047C00030E0F92DFF709F2E02C035952795FA95A0
:1047D000E2F720FD75C08C299D29FA019183808321
:1047E000F8E66F16F1E07F06C9F6F7013197808190
:1047F0008F3F11F00E947D0C20EA2A95F1F7CC0C36
:10480000DD1C43E6E41641E0F40609F0A2CF4AE0DD
:1048100050E0B80186E893E00E94982D6C01FF24D7
:10482000F394892B09F4F12CC114D10441F08AE0EE
:10483000F801A6E8B3E001900D928A95E1F7109196
:104840008303112309F448C00E941F0520918103AE
:1048500030918203FC01E21BF30B9F0190938203D2
:1048600080938103EF3FF10509F068F5EF2B21F10B
:10487000109283031092800340918403509185032A
:10488000CA014096405A5F4F60E070E0FC017097AB
:104890003191332331F0DF0111972317B8F01C92C7
:1048A000612F8E179F07A1F740964817590771F798
:1048B0007093830360938003C114D104E9F40FC0A3
:1048C000862397238ACF2FEF30E0D2CF321B3C9341
:1048D000712FE7CF8BE059C0C114D10439F4809116
:1048E0008003882309F449C0111106C00E941F05E6
:1048F0009093820380938103609184037091850378
:10490000E0908303A6E8B3E041EA53E0882483946F
:10491000912C95E0792E0D911D91FA018191919143
:10492000AF0108271927FB0130E020E06401022EC7
:1049300002C0CC0CDD1C0A94E2F75801AC20BD206B
:10494000A114B10441F0B080B11005C070828C2573
:104950009D25EE24E39431962F5F3F4F20313105A2
:1049600029F7605F7F4FFA01329791838083F3E0EC
:10497000A039BF0781F6E092830380919B038823CF
:10498000B1F0869509F4A6CF8CE08B8784E08C8704
:104990001D860E941F058160782F9F878E87109249
:1049A0009B034B855C856D858F850E940D238F2D24
:1049B0002F96EEE00C94E12B1F920F920FB60F9200
:1049C00011242F933F934F935F936F937F938F9314
:1049D0009F93AF93BF93CF93DF93EF93FF93D091C8
:1049E000E900DF708091EC00C82FC17080FDC0E845
:1049F0001092E9008091F000877F8093F000789416
:104A00000E94C1171092E9008091F00088608093A5
:104A1000F000CD2BCF70C093E900FF91EF91DF91B3
:104A2000CF91BF91AF919F918F917F916F915F9146
:104A30004F913F912F910F900FBE0F901F9018959F
:104A40001F920F920FB60F9211242F933F934F9303
:104A50005F936F937F938F939F93AF93BF93EF93E6
:104A6000FF938091E10082FF09C08091E20082FF04
:104A700005C08091E1008B7F8093E1008091DA0096
:104A800080FF24C08091D80080FF20C08091DA0090
:104A90008E7F8093DA008091D90080FF9DC080E1F5
:104AA00089BD82E189BD09B400FEFDCF81E080931C
:104AB000400580911B05811109C00E946B030E9473
:104AC00036048091E20084608093E2008091E100EE
:104AD00080FF17C08091E20080FF13C08091E20048
:104AE0008E7F8093E2008091E20080618093E200FB
:104AF0008091D80080628093D80019BC85E08093B3
:104B000040058091E10084FF2BC08091E20084FF8A
:104B100027C080E189BD82E189BD89B5982F917058
:104B200080FFFBCF8091D8008F7D8093D80080914B
:104B3000E1008F7E8093E1008091E2008F7E809380
:104B4000E2008091E20081608093E2008091410563
:104B5000882309F447C084E0809340058091400594
:104B60008091E10083FF27C08091E20083FF23C092
:104B70008091E100877F8093E10082E0809340058F
:104B8000109241058091E1008E7F8093E100809139
:104B9000E2008E7F8093E2008091E200806180934A
:104BA000E20042E060E080E00E9404048091F000B6
:104BB00088608093F000FF91EF91BF91AF919F913A
:104BC0008F917F916F915F914F913F912F910F90B6
:104BD0000FBE0F901F90189519BC109240051092AF
:104BE0001B0574CF8091E30087FD93E0909340050F
:104BF000B5CF78941F921FB61F9211248F939F9365
:104C0000AF93BF938091120590911305A091140565
:104C1000B09115050196A11DB11D809312059093C9
:104C20001305A0931405B0931505BF91AF919F9103
:104C30008F911F901FBE1F9018951F921FB61F9235
:104C400011248F939F93AF93BF938091110581118E
:104C500013C08091120590911305A0911405B09195
:104C600015054196A11DB11D809312059093130562
:104C7000A0931405B0931505BF91AF919F918F91AB
:104C80001F901FBE1F901895CDB7DEB7AA970FB61D
:104C9000F894DEBF0FBECDBF85B7806885BF85B7EE
:104CA000806885BF84B7877F84BF0FB6F894A895C6
:104CB00080916000886180936000109260000FBE58
:104CC00080E890E00FB6F8948093610090936100C3
:104CD0000FBE8BE79CE09093DF028093DE020E9480
:104CE0006B030E9436048091E20084608093E200AE
:104CF0007894809140058823A1F01091E9001F70FD
:104D00009091EC00892F817090FD80E8182B109213
:104D1000E9008091E80083FD0E94C1171F70109385
:104D2000E90082E084BD93E095BD9AEF97BD809342
:104D30006E000E94DA10811102C00E94231003E568
:104D400011E0A3E6EA2EA1E0FA2ED8018D918D01A3
:104D50008F3F11F00E947D0CE016F106B1F703E6DB
:104D600011E0F8E6EF2EF1E0FF2EF80181918F01BE
:104D70008F3F11F00E947D0CE016F106B1F78AE03A
:104D8000E1EAF3E0DF01282F1D922A95E9F7E6E832
:104D9000F3E0DF011D928A95E9F780E590E00E943B
:104DA000702CAC01909385038093840330E020E065
:104DB000FA01E20FF31F90E111929150E9F7205FA1
:104DC0003F4F20353105A1F70E94951A811102C08D
:104DD0000E94A11A82E090E00E94B52D809390037A
:104DE0000E94F31090931705809316050E9491235B
:104DF000EFE3FCE93197F1F700C000000E94912336
:104E00008091A10380FF08C06FEF7FEF90E080E00A
:104E10000E94F12D0E94F30483E090E00E94B52DE2
:104E20000E9472160E94951A811104C00E94A11A54
:104E30000E94921546E050E06CE170E08EE495E04F
:104E40000E94A52D1092140480914E058C7F11F4C0
:104E50000E94921581E080939E038098889A8198A1
:104E6000899A8FE891E00197F1F700C00000209146
:104E70009E034FE953E0FA018E2F841B821708F43A
:104E800076C180911605806880931605809116057D
:104E9000909117050E9433108AE091E090930E05DF
:104EA00080930D0558E1652E712C60E4562E7BEA47
:104EB000E72E73E0F72EE2E0CE2ED12C8091400554
:104EC00000E112E1853009F493C10E949123811120
:104ED0000E941305A1EAB3E0E1E9F3E010E000E08D
:104EE000702F8D919D91219131912817390709F4E7
:104EF0008FC160E0AA24A394B12C28273927A901E7
:104F00004A215B21452B09F47DC169A37AA39C0149
:104F10002A213B2191E0232B09F490E09BA30E94DE
:104F20001F058160782F9DA38CA349A15AA16BA175
:104F30008DA10E940D23000F111FF801EF56FC4FA9
:104F400080819181A826B926B182A0820E946B112E
:104F5000912C812C32E0332E4424439480919E0383
:104F6000981608F46CC181100E94130586E0E2EBEC
:104F7000F3E0DE01119601900D928A95E1F710920F
:104F8000B4031092B5031092B6031092B7038B814D
:104F90009C81892B09F44AC08091B0039091B103A0
:104FA0000E9404059C019091AC03992309F4AFC3BE
:104FB00025313105D8F19F3F19F09F5F9093AC03E5
:104FC0001B81112359F00E94010C9FEF11160CF464
:104FD00091E0899F802D11248093B4031C811123BB
:104FE00059F00E94010C9FEF11160CF491E0899F7B
:104FF000802D11248093B5033091B4033323B1F095
:105000002091B503222391F045EB3403C001112414
:10501000992309F48DC19093B40345EB24039001C7
:105020001124332309F488C13093B5038D819E8107
:10503000892B09F44AC08091AE039091AF030E947E
:1050400004059C019091AB03992309F45BC32135BE
:105050003105D8F19F3F19F09F5F9093AB031D81FD
:10506000112359F00E94DF0B9FEF11160CF491E011
:10507000899F802D11248093B6031E81112359F03E
:105080000E94DF0B9FEF11160CF491E0899F802D99
:1050900011248093B7033091B6033323B1F02091EC
:1050A000B703222391F045EB3403C0011124992367
:1050B00009F446C19093B60345EB240390011124F3
:1050C000332309F441C13093B70346E050E0BE01F9
:1050D0006F5F7F4F82EB93E00E94982D892B61F4E4
:1050E0008091B4039091B503892B9091B603892BDD
:1050F0009091B703892B11F00E943F0B86E0FE01CF
:105100003196A2EBB3E001900D928A95E1F70E94EF
:10511000B6059091A00389138093A0038091400568
:10512000843009F0CBCE83E08093E9008091E800E1
:1051300082FFC4CE8091E80090E085FF06C00E9407
:105140008A03882309F404C191E08091E8008B77F9
:105150008093E800992309F4B1CEE981E150E3316D
:1051600008F08CC1F0E0E057F14D0C94B42B8FB1F6
:105170008170799904C090E0892B81937DCE92E073
:10518000FBCF80914005843019F10E946B11109281
:1051900011050FB6F894A895609260000FBE50926A
:1051A000600083B7817F846083BF83B7816083BFE2
:1051B0007894889583B78E7F83BF0FB6F894A895AF
:1051C00080916000886180936000109260000FBE43
:1051D00080913F05882361F00E949123E1EAF3E08A
:1051E00081919191892B09F06EC2EE16FF06C1F7ED
:1051F00080914005853009F4C4CF0E94AB170E940E
:10520000B60563CE6F5FAA0CBB1C603109F077CE88
:105210000F5F1F4F0530110509F062CE8FEF8EA38F
:105220008FA318A60E941F058160782F9AA789A7CF
:105230004EA15FA168A58AA50E940D2387CEA92C47
:10524000B12CEFB1E170799971C080E08E2BD5015E
:10525000A156BC4FEC919E2F9370891709F464C03E
:10526000EE0FEE0FE82BEC93EF70F0E0E459FE4FF9
:10527000850103561C4F8081D8019C91890F8C9326
:1052800020E082300CF1F501E456FC4F80818F5F05
:105290008083F501EE0FFF1FE859FE4F8081918159
:1052A0009A8389834B820E941F058160782F9D839A
:1052B0008C83F501E556FC4F408249815A816B8110
:1052C0008D810E940D2321E0F80180818F3F0CF534
:1052D000F501E456FC4F808181508083F501EE0F8B
:1052E000FF1FE659FE4F808191819A8389834B820B
:1052F0000E941F058160782F9D838C83F501E55600
:10530000FC4F308249815A816B818D810E940D232F
:1053100021E0D8018C91082E000C990BB6010E9457
:10532000A02BF8018083822A939418CE82E08ECF3E
:1053300081E08093B40371CE81E08093B50376CE93
:1053400081E08093B603B8CE81E08093B703BDCEF1
:1053500080E2A82EB12C8E010F5F1F4F8091E800D4
:1053600085FD0AC08091E8008B778093E8000E9459
:105370008A03882399F3E8CE8091F100D8018D93B8
:105380008D01B1E0AB1AB10849F7DECE1A8289E08F
:105390008B8311C08A81823009F4ABC1833091F1D3
:1053A000813009F06BC00E9413050E94BA2B6B83F9
:1053B0007C838D839E8380914005843009F07ECD6F
:1053C0001091E9001F709091EC00892F817090FD81
:1053D00080E8182B82E08093E9008091E80080FF4C
:1053E0000DC050E040E060E270E0CE0101960E9406
:1053F000BB038091E8008E778093E8001F701093C4
:10540000E9005CCD8091A1039091A20398278927A0
:1054100098279C838B838091A3039091A403982762
:10542000892798279E838D838091A5039091A60359
:1054300098278927982798878F838091A703909131
:10544000A8039827892798279A8789878091A90395
:105450009091AA039827892798279C878B87ABCFA1
:105460008A81823059F46B817C818D819E810E947A
:10547000BA2B86E290E00E94D32D9DCF8FEF8983D7
:105480009ACF4C816B818A810E944110982789278D
:1054900098279E838D838FCF2D813E8132272327AE
:1054A00032274C816B818A810E94AC0F84CF0E948D
:1054B000D20F81CF8A818138C9F068F4803809F031
:1054C0007ACF80914F0520E04B816091500590E0AC
:1054D0000E94FB0570CF823819F1833809F06BCF39
:1054E0008B8120E0409151056C81F1CF60E08B8190
:1054F0000E945C069B8180914E05911109C0982FF6
:10550000937011F010921A018C7F80934E0553CF47
:10551000982F937011F410921A018C7F8160F5CF4F
:10552000EB818FE7E43020F4F0E0E458FE4F808117
:105530008093520540CF8A81813899F030F48038C9
:1055400009F039CF8091510523CF823879F0833823
:1055500009F031CF80914F058B83809150058C836A
:105560002ACF80914E058695869512CF809152055F
:10557000873230F08F3530F08E3930F083E008CF4D
:1055800080E006CF81E004CF82E002CF0E9460116C
:1055900012CF80E18A830FCF81E08A8389E5F8CE3C
:1055A0000A811B81102701271027FE0131965F0118
:1055B0008C80CF01880D911D4C01C80189559D4FEC
:1055C0008A149B0409F4F7CE0935A1E01A0750F4B8
:1055D0000E94B52DF50184830F5F1F4FBFEFAB1AFB
:1055E000BB0AEBCFD50114961C92F6CF0A811B8122
:1055F000102701271027FE0131964F01AC80A00E25
:10560000B12EB11CC80189559D4F0A151B0509F41F
:10561000D2CE0935F1E01F0728F4D40114966C911D
:105620000E94D32DBFEF8B1A9B0A0F5F1F4FEACF4B
:105630000E949C0FC0CE84E0ADCF0A811B81102751
:1056400001271027FE0131965F018C80CF01880D64
:10565000911D4C01C8018796A814B90409F4ABCE7A
:105660000038A2E01A0750F40E94B52DF50184839A
:105670000F5F1F4FBFEFAB1ABB0AECCFD5011496DB
:105680001C92F6CF0A811B81102701271027FE01EB
:1056900031964F01AC80A00EB12EB11CC801879687
:1056A0000A151B0509F487CE0038F2E01F0728F41D
:1056B000D40114966C910E94D32DBFEF8B1A9B0AD4
:1056C0000F5F1F4FEBCF09BD19BD09B400FEFDCF21
:1056D0008091D8008F7D8093D8008091E000826017
:1056E0008093E0008091E00081FDFCCF0E94AB1729
:1056F0007FCD86E290E00E94B52D1B821C821D8228
:105700008E8359CE2B30310508F0A6CCDECC2B3061
:10571000310508F052CC8ACCAA1BBB1B51E107C053
:10572000AA1FBB1FA617B70710F0A61BB70B881F31
:10573000991F5A95A9F780959095BC01CD010895C0
:1057400097FB072E16F4009407D077FD09D00E942E
:105750008C2B07FC05D03EF4909581959F4F0895C2
:10576000709561957F4F0895EE0FFF1F0590F4919E
:10577000E02D0994692796276927782787277827B6
:1057800008952F923F924F925F926F927F928F92E5
:105790009F92AF92BF92CF92DF92EF92FF920F93C0
:1057A0001F93CF93DF93CDB7DEB7CA1BDB0B0FB6CA
:1057B000F894DEBF0FBECDBF09942A883988488887
:1057C0005F846E847D848C849B84AA84B984C8841D
:1057D000DF80EE80FD800C811B81AA81B981CE0F14
:1057E000D11D0FB6F894DEBF0FBECDBFED010895F9
:1057F000CF92DF92EF92FF92CF93DF93CDB7DEB7D8
:105800002A970FB6F894DEBF0FBECDBF89879A875F
:10581000A985BA852D913D914D915C9129833A835B
:105820004B835C83232B242B252B41F424E239ED7D
:105830004BE557E029833A834B835C8369817A8106
:105840008B819C812DE133EF41E050E00E94F72DE8
:1058500069017A01A7EAB1E49B01AC010E94162E0E
:1058600069837A838B839C83ACEEB4EFA7019601A6
:105870000E94242E9B01AC0189819A81AB81BC815D
:10588000820F931FA41FB51FB7FF03C00197A10983
:10589000B048E985FA8580839183A283B3839F779B
:1058A0002A960FB6F894DEBF0FBECDBFDF91CF9121
:1058B000FF90EF90DF90CF9008950E94F82B08950D
:1058C00080E091E00E94F82B0895B0E0A0E0809382
:1058D000000190930101A0930201B0930301089588
:1058E0000F931F93CF93DF939C01029710F422E054
:1058F00030E0E091E002F091E10290E080E0B0E081
:10590000A0E0309791F4009709F445C0821B930BF7
:1059100084309105B8F58A819B816115710569F123
:10592000FB0193838283FE0111C04081518102817A
:10593000138142175307F0F04217530799F4109759
:1059400061F012960C93129713961C933296CF0126
:10595000DF91CF911F910F9108950093E002109372
:10596000E102F4CF009719F04817590718F4CA015B
:10597000BD01EF01DF01F801C4CF9093E1028093F4
:10598000E002D1CFFE01E80FF91F21933193029776
:1059900099838883DCCF8091E2029091E302892B86
:1059A00041F480910601909107019093E302809366
:1059B000E2028091040190910501009741F48DB7B6
:1059C0009EB74091080150910901841B950B4091AD
:1059D000E2025091E3024817590708F0B8CF841B40
:1059E000950B8217930708F4B2CFB9016E5F7F4F12
:1059F0008617970708F4ABCF640F751F7093E30207
:105A00006093E202FA0121933193A1CFCF93DF9308
:105A10009C010097E9F0FC01329713821282C09139
:105A2000E002D091E102DE0190E080E02097A1F455
:105A300080819181280F391F8091E2029091E302C9
:105A40008217930709F067C0F093E302E093E20244
:105A5000DF91CF910895DA01AE17BF0708F041C07A
:105A600012964D915C911397CD014115510599F70F
:105A7000DC011396FC93EE9312974D915D91A40F68
:105A8000B51FEA17FB0781F4208131812E5F3F4F5C
:105A9000240F351FDC0111963C932E932281338114
:105AA00013963C932E931297B0E0A0E08A819B81DD
:105AB0000097B1F5FE0181919191E80FF91F809156
:105AC000E2029091E3028E179F0711F6109759F5A5
:105AD0001092E1021092E002D093E302C093E2023E
