:100000000C944C030C9469030C9469030C946903DD
:100010000C9469030C9469030C9469030C946903B0
:100020000C9469030C9469030C94E9240C94A524A2
:100030000C94E6250C9469030C9469030C946903F1
:100040000C9469030C9469030C9469030C94690380
:100050000C9469030C94C2250C9469030C946903F5
:100060000C9469030C9469030C9469030C94690360
:100070000C9469030C9469030C9469030C94690350
:100080000C9469030C9469030C9469030C94690340
:100090000C9469030C9469030C9469030C94690330
:1000A0000C9469030C9469030C946903050109021B
:1000B000A10185020901A1000509190129081500FE
:1000C0002501950875018102050109300931158165
:1000D000257F95027508810609381581257F9501D0
:1000E00075088106050C0A38021581257F95017572
:1000F000088106C0C005010980A101850319012AF4
:10010000B700150126B700950175108100C0050CD8
:100110000901A101850419012AA002150126A002E6
:10012000950175108100C005010906A1018506052C
:100130000719E029E71500250195087501810205D9
:1001400007190029EF1500250195F07501810205B9
:10015000081901290595057501910295017503910D
:1001600001C00660FF0961A1010962150026FF00B8
:100170009520750881020963150026FF00952075FA
:10018000089102C005010906A101050719E029E748
:1001900015002501950875018102950175088101F9
:1001A0000507190029FF150026FF0095067508812F
:1001B000000508190129059505750191029501753C
:1001C000039101C0000000000000000000000000DA
:1001D000000000000000000000000000000000001F
:1001E00000000000000000007E0F00D4FFFFFFC7EA
:1001F0000000007800000000000000002A2B28000A
:1002000000000000000000000000000000000029C5
:10021000000000002C1E3420212224342627252E05
:10022000362D3738271E1F2021222324252633333D
:10023000362E37381F0405060708090A0B0C0D0E69
:100240000F101112131415161718191A1B1C1D2F35
:100250003130232D350405060708090A0B0C0D0E55
:100260000F101112131415161718191A1B1C1D2F15
:100270003130354C0001010101010101010102028F
:100280000202020202020203030303030303030444
:10029000040404040404050505050506060606060F
:1002A000070707070708080808090909090A0A0AC9
:1002B0000B0B0B0C0C0C0D0D0D0E0E0E0F0F0F106B
:1002C00010111111121213131414151516161717F5
:1002D000181819191A1A1B1B1C1D1D1E1E1F202061
:1002E000212222232424252626272829292A2B2CAB
:1002F0002D2D2E2F30313232333435363738393ACE
:100300003B3C3D3E3F404142434445464748494AC5
:100310004C4D4E4F50515354555658595A5B5D5E93
:100320005F616264656668696B6C6D6F707273752E
:1003300077787A7B7D7E8082838587888A8C8E8F92
:1003400091939596989A9C9EA0A2A3A5A7A9ABADC0
:10035000AFB1B3B5B7BABCBEC0C2C4C6C9CBCDCFAE
:10036000D1D4D6D8DBDDDFE2E4E7E9EBEEF0F3F55C
:10037000F8FAFDFF29001E001F00200021002200C6
:10038000230024002500260027002D002E002A002F
:1003900000004C002B0014001A0008001500170084
:1003A00000001C0018000C00120013002F00300089
:1003B00031004B00390004001600070009000A0054
:1003C00000000B000D000E000F0033003400280069
:1003D00000004E00E1001D001B0006001900050092
:1003E000000011001000360037003800E500000062
:1003F00052000000E0000000E2002C0000000000BD
:1004000001512C0000000000E600AA00A9005000E5
:1004100051004F0035023A003B003C003D003E00D9
:100420003F00400041004200430044004500005CA2
:100430000000460001000100010001000100010070
:10044000000001000100010001000100C75CC85C60
:10045000C25CC55C01000100010001000100010057
:100460000000010001000100010001000100010085
:100470000000C65C01000100010001000100010054
:100480000000010001000100010001000100000066
:10049000C95C000001000000010001000000000034
:1004A0000100010000000000C35C01000100010028
:1004B000CA5C01000100010001000100010001000F
:1004C0000100010001000100010001000100010024
:1004D0000000010001000100010001000100010015
:1004E0000000010001000100010001000100010005
:1004F00001000100010001000100010001000100F4
:1005000000000100010001000100010001000100E4
:1005100000000100010001000100010001000100D4
:1005200000000100010001000100010001000000C5
:1005300001000000010000000100010000000000B7
:1005400001000100000000000100010001000100A5
:100550000100010001000100010001000100010093
:100560000100010001000100010001000100010083
:100570000000010001000100010001000100010074
:100580000000010001000100010001000100010064
:100590000100010001000100010001000100010053
:1005A0000000010001000100010001000100010044
:1005B0000000010001000100010001000100010034
:1005C0000000010001000100010001000100000025
:1005D0000100000001000000010001000000000017
:1005E0000100010000000000010001000100010005
:1005F0000100010009025B00030100A0FA090400E8
:10060000000103010100092111010001224000073E
:10061000058103080001090401000203000000092C
:100620002111010001222200070582032000010799
:100630000503032000010904020001030000000972
:10064000211101000122B6000705840320000112D8
:1006500001000200000008EDEC6336010001020019
:10066000011A03460061006E006300790041006CCE
:100670000069006300650036003600000014034680
:100680000061006E0063007900740065006300681B
:10069000000000040309040011241FBECFEFDAE0BC
:1006A000DEBFCDBF25E0A8EDB2E001C01D92AB34A6
:1006B000B207E1F712E0A0E0B1E0EEE3FAE502C034
:1006C00005900D92A83DB107D9F70E940D260C9414
:1006D000D62C0C940000E8EDF0E080818E7F8083C2
:1006E0001092E2001092DA001092E100A0EEB0E069
:1006F0008C9181608C9380818F77808319BCA7ED6A
:10070000B0E08C918E7F8C9380818F7E808310925D
:100710000E0508952091E4003091E50095E6A901C9
:100720002091EC00822F817020FF06C08091E800AC
:1007300080FF06C080E008952091E80022FD1AC0E5
:1007400080913305882389F0853089F08091EB0012
:1007500085FD0FC02091E4003091E500421753075A
:10076000F9F29150E1F684E0089582E0089583E083
:10077000089581E00895EF92FF920F931F93CF9316
:100780007C018B010E948A03C82F811117C08091C0
:10079000E80085FD0BC08091E8008E778093E8002B
:1007A0000E948A03882399F3C82F08C0F70181911A
:1007B0007F018093F1000150110949F78C2FCF91EF
:1007C0001F910F91FF90EF9008958091350587FF5D
:1007D00013C08091E80082FF06C08091E8008B770B
:1007E0008093E80004C0809133058111F2CF089511
:1007F000809133058823D9F38091E80080FFF8CFFA
:100800008091E8008E77ECCF982F9093E900242F09
:10081000762F50E0891731F07091EC002091ED00B7
:100820005091F00021FD07C09F5F973071F78093D2
:10083000E90081E008953091EB003E7F3093EB00BA
:100840003091ED003D7F3093ED003091EB00316051
:100850003093EB007093EC002093ED005093F00088
:100860002091EE0027FDE0CF80E00895B0E0A0E009
:10087000ECE3F4E00C946F2BC8EDD0E088818F7E20
:100880008883E7EDF0E080818160808384E082BF2F
:1008900081E080930E0588818E7F888302EE10E0D0
:1008A000F80110821092DA0081EEC82ED12CF601E8
:1008B000108288818F778883888180688883888187
:1008C0008F7D888319BC10923305109234051092E5
:1008D00032051092310590EEE92EF12CF70180815E
:1008E0008B7F808388818160888342E060E080E044
:1008F0000E940404F60180818E7F8083F80180814C
:1009000081608083808188608083F70180818E7F11
:100910008083888180618883CDB7DEB7E8E00C945E
:100920008B2BFC0180913B0590913C058617970726
:10093000A0F06115710529F49091E8009E779093DD
:10094000E80090E06115710551F4911108C08091A3
:10095000E80082FF34C080E00895BC01F2CF8091AE
:1009600033058823C1F18530C1F18091E80083FD12
:1009700030C08091E80082FDEACF8091E80080FFDE
:10098000E1CF8091F3002091F200382F61157105BD
:1009900019F02830310558F091E02830310509F080
:1009A00090E02091E8002E772093E800CBCF819152
:1009B0008093F100615071092F5F3F4FE7CF809125
:1009C0003305882341F0853041F08091E80083FFB2
:1009D000BECF81E0089582E0089583E008950895F0
:1009E00080911005089587E797E790930108809319
:1009F000000888E19AE00FB6F894A895809360000B
:100A00000FBE90936000FFCF9C014FB7F894809188
:100A1000050590910605A0910705B09108054FBF07
:100A2000821B930B08952FB7F89460910505709180
:100A3000060580910705909108052FBF08952FB7EF
:100A4000F8948091050590910605A0910705B09155
:100A500008052FBF0895209115012223C9F0209188
:100A6000090527FF15C0E62FE695E695E695EE31D8
:100A7000D8F4E80FF92FF11D677021E030E001C0D4
:100A8000220F6A95EAF72095828128232283089510
:100A9000FC01329608962191621303C0DF01119781
:100AA0001C92E817F907B9F7089520911501222340
:100AB000C1F02091090527FF14C0E62FE695E695C1
:100AC000E695EE31F8F4E80FF92FF11D677021E09B
:100AD00030E001C0220F6A95EAF78281822B82837F
:100AE0000895FC0132962FEF30E04191641751F0E8
:100AF0002F3F19F4411101C0232F3F5F3630A9F772
:100B00002F3F09F40895820F911D27FD9A95FC014E
:100B10006283089520910205309103052817390753
:100B200071F09093030580930205E0910005F09128
:100B30000105309721F00084F185E02D0995089595
:100B40002091FE043091FF042817390771F090932B
:100B5000FF048093FE04E0910005F09101053097B9
:100B600021F00680F781E02D09950895E0910005B8
:100B7000F0910105309729F00190F081E02D099561
:100B8000089580E00895FA01811101C0FB010995E3
:100B90000895E8E0F4E0818360834283339694E033
:100BA000EE3FF907C1F70895FC01EE0FFF1FE80FB4
:100BB000F91FE85FFB4F6183408322830895E1E4DE
:100BC000F5E0248130E1231B08F420E024838091A8
:100BD00007048160809307040895E1E4F5E024812F
:100BE00030E1230F08F42FEF248380910704816004
:100BF00080930704089590914105937071F080935C
:100C0000420560934305493C08F048EC4093440595
:100C100080910704822B809307040895E1E4F5E0B6
:100C2000438120E1421B08F440E0818121E06281A0
:100C300090E00E94FB050895E1E4F5E0438120E1A6
:100C4000420F08F44FEF818121E0628190E00E9421
:100C5000FB050895E1E4F5E0628120E1621B08F400
:100C600060E0818121E0438190E00E94FB050895CE
:100C7000E1E4F5E0628120E1620F08F46FEF818129
:100C800021E0438190E00E94FB050895E1E4F5E056
:100C9000818121E0438162818850990B0E94FB058C
:100CA0000895E1E4F5E0818190E021E043816281F3
:100CB00008960E94FB05089590914105937061F09C
:100CC00081110BC0946090934105109214018091A2
:100CD0000704862B8093070408958E3110F09467E3
:100CE000F2CF880F880F982BEECF80914105869523
:100CF0008695815009F48DE161E00E945C060895BB
:100D000080914105869586958F5F8E3108F081E050
:100D100061E00E945C060895E42FF0E0EE0FFF1FF3
:100D2000EF51FE4F9081921B97FD9195292F38E14D
:100D3000239F212D1124620F08950F931F9310E01C
:100D4000F801EE0FFF1FEF51FE4F9081905797FD76
:100D50009195000F111FF801EE51FE4F00810052D6
:100D6000110B2003F001219FF00D112408E310E086
:100D7000091B110997FD139540039001419F300D08
:100D80001124E20FF31F9F01220F331F2E0F3F1F6D
:100D900037FF02C021583F4F220F232F221F330B52
:100DA000620F1F910F9108950F931F93522F10E020
:100DB000F801EE0FFF1FEE51FE4FA081A052BB0BBA
:100DC0009D015203F001539FF00D1124000F111FDC
:100DD000D801AF51BE4F0C910057110B4003900149
:100DE000419F300D11242E0F3F1F37FF02C0215CA1
:100DF0003F4F96E0359527959A95E1F7620F1F9141
:100E00000F9108950F931F93522F10E0F801EE0FEA
:100E1000FF1FEE51FE4FA081A052BB0B9D0152035C
:100E2000F001539FF00D1124000F111FD801AF5195
:100E3000BE4F0C910057110B40039001419F300DA4
:100E400011242E0F3F1F37FF02C021583F4F220FA2
:100E5000232F221F330B620F1F910F910895EF92E2
:100E60000F93972F23E0029FB0011124759567958A
:100E70006E0D792F0F91EF900895322F50E0FA0107
:100E8000EE0FFF1FEE51FE4F9081905297FD91950E
:100E9000440F551FFA01EF51FE4F2081231B330BE6
:100EA000290F311D97FD3A95620F0895E42FF0E068
:100EB000EE0FFF1FEE51FE4F6081621B0895E42F7D
:100EC000F0E0EE0FFF1FEF51FE4F6081621B0895AF
:100ED000622F0895E42FF0E0EE0FFF1FEF51FE4F59
:100EE000408134EE439F412D1124E82FF0E050E083
:100EF000445E5F4FDA01A21BB1099D01B7FF03C039
:100F000031952195310993E0220F331F9A95E1F72E
:100F1000AF01421B530B9A0157FD20E0582F259F2C
:100F2000212D1124822F0895E42FF0E0EE0FFF1FF2
:100F3000EF51FE4F408134EE439F412D1124E72FA6
:100F4000F0E050E0445E5F4FDA01A21BB1099D0161
:100F5000B7FF03C031952195310993E0220F331F6C
:100F60009A95E1F7AF01421B530B9A0157FD20E020
:100F7000279F212D1124722F08950E94C9050895DD
:100F80000E94D4050895FC019B01009729F480E09C
:100F900077FF2BC080E80895AC0197FF04C0442779
:100FA0005527481B590BB901640F751F37FD10C039
:100FB000241B350BC901A5E0880F991FAA95E1F7FD
:100FC0000E94442B80E2861BF7FF0FC08195089595
:100FD000CB0165E0880F991F6A95E1F7BA01621BA2
:100FE000730B0E94442B80E6EECF0895EF920F938F
:100FF000CF93DF93D72FC82FC9010E19BA010E94D2
:10100000C307602F681B7D2F8C2FDF91CF910F912D
:10101000EF9008950F93CF93DF93D72FC82FC90177
:10102000BA010E94C307682F600F7D2F8C2FDF91BC
:10103000CF910F910895EF920F931F93CF93DF936A
:10104000D62FC72F182FC9010E19010FBA010E9400
:10105000C307081B202F219F212D1124822F6D2FC4
:101060007C2FDF91CF911F910F91EF900895EF9218
:101070000F931F93CF93DF93D62F172FC82FC9013C
:101080000E19070FBA010E94C307702F781B719FBA
:10109000712D11246D2F8C2FDF91CF911F910F9106
:1010A000EF9008950F931F93CF93DF93D62FC72F01
:1010B000182FC901212F201B022FBA010E94C3073C
:1010C000982F990F990F891B800F282F219F212D71
:1010D0001124822F6D2F7C2FDF91CF911F910F91C3
:1010E00008950F931F93CF93DF93D62F172FC82FF9
:1010F000C901272F201B022FBA010E94C307982F76
:10110000990F990F782F791B700F719F712D1124F2
:101110006D2F8C2FDF91CF911F910F910895E82FA4
:1011200086FDE0952E2F2F7086FD2F5FE695E695C4
:10113000E695E670F0E0E658FE4F9181929F902D83
:10114000212D112492959F702295207F922B208132
:10115000920F87FD919580E8890F08950F931F9353
:10116000CF93DF938B01D82FC42F822F0E948F083B
:10117000EC2FF0E0EE0FFF1FEF51FE4F90819058E3
:10118000890F87FD8195880F682F2CE0629F612D64
:101190001124600F712F8D2FDF91CF911F910F912F
:1011A0000895409110015091110125E038E0429FCF
:1011B000C001439F900D529F900D1124875E994C62
:1011C0009093110180931001890F0895AC01823032
:1011D000910508F408959FEF413E8EE1580740F4D1
:1011E0009A0195E0369527959A95E1F798E0920F48
:1011F00061E0E62FE90FFF27FF1F9F013595279537
:10120000822F229FF001239FF00DF00D11244E1725
:101210005F0738F49FEF920F961758F78FEF860FFE
:1012200008952F3FE9F361E0620FF6CF0F93CF935C
:10123000DF93D72FC82F47FD419588E390E0841BAB
:10124000910947FD9395889FB001899F700D700D9E
:101250001124229FC001239F900D900D1124860F11
:10126000971F0E94E608982F990F890F682F600F2B
:101270007D2F8C2FDF91CF910F91089530E020E0EA
:10128000869F212D969F200D311D1124C90108959F
:10129000AF92BF92CF92DF92FF920F931F93CF93A3
:1012A000DF93362F472FE82FF0E0EC58FD4F7111F8
:1012B0000FC0E4918E2F2E2F6E2F722FDF91CF91C2
:1012C0001F910F91FF90DF90CF90BF90AF90089546
:1012D000C72FD0E02491F22E022F10E056E0659F38
:1012E000C0011124EFEFF0E0BF010E94302B832FEB
:1012F00090E0880F991F35E5369FD001379FB00DDC
:1013000011248A1B9B0B982F990F980F6F01CC1AF1
:10131000DD0AC09ED001C19EB00DD09EB00D11243B
:101320008B2F499FA0011124452F55276F01C41A07
:10133000D50AC09EA001C19E500DD09E500D112413
:101340005F01A91AB108AC9E6001AD9ED00CBC9E95
:10135000D00C1124CD2CDD24EC19FD09E09FE00117
:10136000E19FD00DF09FD00D1124ED2F623071055B
:10137000A1F050F46115710509F49ECF613071053B
:1013800081F0EB2F852F98CF6430710569F080F0E4
:101390006630710509F490CFF4CFE22F2B2F8D2FFB
:1013A0008BCFE22F252F88CFEB2F822F2D2F84CFAD
:1013B0002B2F8F2DE52F80CFB0E0A0E0E2EEF9E0FB
:1013C0000C94702B7C01C091160181E1C89FC02D47
:1013D000112411E11C0F012F133508F002E5609173
:1013E00045056695669521E0620F08F46FEF8091E0
:1013F0003D0590913E050E943E09D82ED0E0C017D1
:1014000048F081E0123508F080E0CDB7DEB7E7E0C4
:101410000C948C2BFE01EB57FD4F808190911701AE
:10142000892391F0609142057091430580914405B4
:101430002D2D4C2FF70109950E944809462F282F82
:10144000672FCE010E94C0072196D9CFB0E0A0E05F
:10145000ECE2FAE00C946C2B6C01C091160181E176
:10146000C89FC02D112411E11C0FB12E133510F0AF
:1014700032E5B32E609145056695669580913D05F0
:1014800090913E050E943E09F82E80E48F0D0E9447
:101490008F0890E8A92EA80E8F2D0E948F0820E8B3
:1014A000922E980ED0E0CB1548F081E0123508F06E
:1014B00080E0CDB7DEB7EBE00C94882BFE01EB5754
:1014C000FD4F8081909117018923A1F06091420521
:1014D0007091430580914405EF2C0C2F292D4A2D46
:1014E000F60109950E944809462F282F672FCE0143
:1014F0000E94C0072196D7CFB0E0A0E0E2E8FAE072
:101500000C946A2B5C01C091160181E1C89FC02D2B
:10151000112411E11C0FF12E133510F032E5F32EDA
:1015200060914505669580913D0590913E050E942C
:101530003E09782ED0E0CF1548F081E0123508F052
:1015400080E0CDB7DEB7EDE00C94862BFE01EB57C3
:10155000FD4F8081909117018923C9F1CE01880F39
:10156000991F8F569E4FFC01E05BFF4F2081422F59
:101570004057550B6A018F5A9F4FFC018081282FDD
:101580002052330B4901449F9001459F300D300D8F
:101590001124889CC001899C900D900D1124820F0C
:1015A000931F0E94E608082F609142057091430541
:1015B00080914405E72C9401A601F50109950E944C
:1015C0004809462F282F672FCE010E94C007219679
:1015D000B2CFB0E0A0E0EFEEFAE00C946F2B7C010C
:1015E000C091160181E1C89FC02D112411E11C0F8B
:1015F000D12E133510F032E5D32E60914505669556
:1016000080913D0590913E050E943E09C82ED0E094
:10161000CD1548F081E0123508F080E0CDB7DEB797
:10162000E8E00C948B2BFE01EB57FD4F80819091ED
:101630001701892311F1CE01880F991F8F569E4FF4
:10164000FC01EF5AFF4F20812052330B805B9F4FEC
:10165000FC0140814057550B609142057091430554
:10166000809144050C2DF70109950E944809462FE9
:10167000282F672FCE010E94C0072196C9CF0E9454
:101680001F059C019091A7038091A803982B21F03E
:101690003093A4032093A3039091A9038091AA03FC
:1016A000982B21F03093A2032093A103E091000531
:1016B000F0910105309749F082E08093A503048002
:1016C000F581E02D85EA93E0099508954091A703FF
:1016D000803F59F48091A80387FF0DC01092A803A2
:1016E00041110BC010929F0308C0813F81F480918B
:1016F000A80318169CF3442381F08091A9039091CC
:10170000AA03892B09F05AC010929E030895823FC4
:1017100049F447FFF0CF1092A7038091A8038111ED
:10172000ECCFE0CF833F19F41416ACF3E4CF9091E3
:10173000A903893F29F41916F4F61092A903DBCF07
:101740008A3F19F497FFD7CFF8CF9091AA038B3F28
:1017500029F497FFD0CF1092AA03CDCF8C3F19F474
:101760001916CCF3C8CF9CE0980F953090F4845FA5
:10177000990B21E030E0B90102C0660F771F8A950E
:10178000E2F7CB0180959091A60389238093A6036D
:10179000B2CF8D3F31F48091A0038E7F8093A00360
:1017A000AACF8E3F21F48091A0038D7FF7CF8F3F8A
:1017B00009F0A1CF8091A0038B7FF0CF0895809195
:1017C000A00380FD16C081FD16C082FD16C0809169
:1017D0009E038823A1F0883280F428E0829FC00114
:1017E000112468E270E00E94442B862F672B39F0A9
:1017F000089582E0089584E0089588E0089581E0E6
:1018000008958091A00380FD14C081FD14C082FD65
:1018100016C080919F03882381F08E3180F420E5EB
:10182000829FC00111246EE170E00E94442B862F3C
:10183000089584E1089588E2089588E0089580E598
:101840000895803F31F40E94010C81958093A80394
:101850000895813F19F40E94010CF8CF823F31F4C2
:101860000E94010C81958093A7030895833F19F48A
:101870000E94010CF8CF893F29F40E94DF0B80936E
:10188000A90308958A3F21F40E94DF0B8195F7CFC9
:101890008B3F31F40E94DF0B81958093AA0308955A
:1018A0008C3F19F40E94DF0BF8CF9CE0980F953025
:1018B00070F4845F990B21E030E001C0220F8A951B
:1018C000EAF78091A603822B8093A60308958D3FAB
:1018D00031F48091A00381608093A00308958E3F2E
:1018E00021F48091A0038260F7CF8F3FB9F78091F8
:1018F000A0038460F1CF80E00895F894E82FE2958A
:10190000EF70F0E031A1282F2F7081E090E001C04E
:10191000880F2A95EAF7982F9095932391A392A187
:10192000892B82A3789408959091090592FF06C0AF
:10193000282F28712830F9F4877F846093FF06C030
:10194000282F28712831F1F4877E846120910A05BF
:1019500020FF06C0382F38713830D9F4877F816076
:1019600021FF06C0282F28712831D1F4877E81619C
:1019700094FD877E0895282F24712430F9F68B7FFB
:101980008860DCCF282F2471243101F78B7E886199
:10199000DDCF382F3171313019F78E7F8860E0CF7D
:1019A000282F2171213121F78E7E8861E1CFCF93DD
:1019B000DF93EC0182389105A9F1D8F581339105C7
:1019C00009F496C048F58932910509F48AC08A97CE
:1019D00009F495C0C11521E5D20708F0BCC0C115B6
:1019E00030E5D30708F014C1C83ED10508F09CC00B
:1019F000C03ED10560F5C83AD10508F087C0C53AA8
:101A0000D10508F0FDC0C130D10509F12097F9F0EA
:101A1000C430D105E0F440C08533910509F45AC0C3
:101A2000C997C1F680910905837089F0C0EED0E0B6
:101A30000EC0833E910599F170F4803E910501F14D
:101A4000823E910539F68091090582FD21C0CE01C3
:101A5000DF91CF910895863E910561F1873E910512
:101A600071F1843E910509F0B5CF80910A0581FF9F
:101A7000EECF80910905C7EED0E084FD0DC0E7CF21
:101A80008091090580FD12C190910A0590FFDFCF7A
:101A9000C3EED0E084FFDBCFD0E0C0E0D8CF8091B0
:101AA000090582FD06C190910A0590FDBFCF84FF14
:101AB000CECFF2CF8091090583FDDDCFC8CF8091D5
:101AC000090583FDF9C090910A0591FFF0CFC4EE9E
:101AD000D0E0BDCF8091090585FFB9CFC9E2D0E044
:101AE000B6CF8091090585FFB2CFC5E3D0E0AFCF77
:101AF0008091090586FFABCFCAE2D0E0A8CF8091E4
:101B0000090586FFA4CFC1E3D0E0A1CFCF3BD1052B
:101B100018F6C85AD0E0CC0FDD1FC15EDE4F099029
:101B2000D881C02DD46493CFC11540E2D40758F4B6
:101B3000C11581E0D80708F08ACFC03FD10508F46D
:101B4000ABCFD06584CFC11590E4D90708F4A4CFFA
:101B5000DF70D06A7CCFC11525E5D20700F5C1152D
:101B600034E5D30708F08AC0C11543E5D40708F06F
:101B700071C0C11582E5D80708F467C0CE01837033
:101B8000992721E030E002C0220F331F8A95E2F747
:101B9000C695C69580E2C89FE001112452C0C115C8
:101BA00099E5D907A8F4C11528E5D20708F06BC05C
:101BB000C11536E5D30708F06FCF8C2F0E94940C27
:101BC000C82FD0E0DC2FCC27CC27DF71D0623FCFED
:101BD000C1154AE5D40708F45BC0CE0190568115C3
:101BE000904208F059CF8D2F8F710E94940C90E095
:101BF000982F882788279F719C012C2BE901E6CF1D
:101C0000C55AD0E0C45EDE4FC881D0E0D0641FCF9B
:101C1000CE01E4E096958795EA95E1F783702C2F45
:101C200026952695237040E2249F90011124382B9D
:101C30008C2F8370C1E0D0E002C0CC0FDD1F8A95ED
:101C4000E2F7C22BD32BDC6802CFDC2FCC27C16F8D
:101C5000D06AFDCECE018370992721E030E002C02A
:101C6000220F331F8A95E2F7C695C69590E2C99F69
:101C7000E0011124C22BD32BDA68E9CEDC2FCC276C
:101C8000C46FD06AE4CEDC2FCC27C06FD06ADFCE21
:101C90008C2F8F700E94940C34E0D695C7953A959E
:101CA000E1F7CF709C2FEC01D069D1CEC9E3D0E031
:101CB000CECEC2EED0E0CBCEC6EED0E0C8CE809184
:101CC00074038111109274030895809590917303A9
:101CD00098239093730308958091500390911F036C
:101CE000981301C008958F5F8770FACF953080F503
:101CF000803170F540E1949F90011124820F932F61
:101D0000911D682F677023E0969587952A95E1F7D6
:101D1000FC01EE0FFF1FE80FF91FE550FD4F50E0EB
:101D200040E080E0219130E0062E02C036952795F4
:101D30000A94E2F721703327042E01C0220F0A947F
:101D4000EAF7822B4F5F5F4F4330510559F70895F3
:101D500080E00895953098F5803188F540E1949FB2
:101D600090011124820F932F911D282F277041E09D
:101D700001C0440F2A95EAF723E0969587952A95A6
:101D8000E1F7FC01EE0FFF1FE80FF91FE550FD4FD3
:101D900090E080E070E05191DF0111979B01082EE7
:101DA00002C0369527950A94E2F7217021952527E0
:101DB000242325272C9301968330910561F70895FC
:101DC00080930B0570930D0560930C05809133058E
:101DD0008430F9F48093E9008FEF9091E80081500E
:101DE00095FD06C095ED9A95F1F700008111F5CFAC
:101DF0008091E80085FF0DC050E040E063E070E0B6
:101E00008BE095E00E94BB038091E8008E77809381
:101E1000E8000895BC0184E00E94E00E0895BC0132
:101E200083E00E94E00E08959C0184E08093E90025
:101E30009FEF8091E800915085FD06C085ED8A9561
:101E4000F1F700009111F5CF8091E80085FF0CC0FB
:101E500050E040E066E070E0C9010E94BB03809161
:101E6000E8008E778093E8000895CF93DF93EC012C
:101E7000809115018823B1F18091090587FF32C057
:101E800060E284E08093E9008FEF9091E800815058
:101E900095FD06C095ED9A95F1F700008111F5CFFB
:101EA0008091E80085FF1BC08091150170E050E033
:101EB00040E0811104C050E040E068E070E0CE01F5
:101EC0000E94BB038091E8008E778093E80080E257
:101ED000FE01A1E1B5E001900D928A95E1F7DF9155
:101EE000CF91089568E081E0CDCF209A35B13E7F53
:101EF00025B121604FB7F89488E094E0FC0151913E
:101F0000CF0168E025B9000000C057FF35B9550F73
:101F1000000000C000C000C035B900C06A9591F74C
:101F2000F4E08E3F9F0751F74FBF8FE594E0019794
:101F3000F1F700C000000895CF93DF93C7EAD2E025
:101F400060E0CE010E944F2C2196C11584E0D80795
:101F5000B9F7DF91CF9108951F93CF93DF93122F9D
:101F60008430E0F46530D0F44031C0F490E2699FF1
:101F7000E001112450E0440F551FC40FD51F90EA13
:101F8000899FC00DD11D1124632FCE0187960E9419
:101F90004F2C612FCE0188960E944F2CDF91CF915C
:101FA0001F910895AF92BF92CF92DF92EF92FF926E
:101FB0001F93CF93DF9384E7C82E83E0D82ED0E021
:101FC0007601C0E014C0F50125913491412F6C2FAA
:101FD0008D2F0E94AC0F82E0A80EB11C1F5F103144
:101FE00091F780E2E80EF11CCF5FC53019F0570180
:101FF00010E0E9CFDF5F80EAC80ED11CD43001F7D2
:10200000DF91CF911F91FF90EF90DF90CF90BF9025
:10201000AF900895CF93C82F6FEF811162E283E2F2
:1020200090E00E944F2C6FEFC11167E084E290E0D6
:102030000E944F2C6FEFC11162E185E290E00E9497
:102040004F2CCF91089580E00E940A1060E086E254
:1020500090E00E944F2C0E94D20F0E949C0F81E0C2
:102060000E940A100895CF93C92F682F84E090E052
:102070000E944F2C6C2F82E290E00E944F2CCF9157
:1020800008950F931F93CF93DF93843030F565301D
:1020900020F5403110F520E2629F8001112450E0CC
:1020A000440F551F040F151F30EA839F000D111DAB
:1020B0001124C80187960E94312CC82FD0E0DC2F54
:1020C000CC27C80188960E94312C9E01282BC9017B
:1020D000DF91CF911F910F91089590E080E0F8CFAC
:1020E000462F843040F4753030F4603120F4672F8F
:1020F0000E944110089590E080E00895CF92DF9211
:10210000FF920F931F93CF93DF936C0100914705CC
:1021100080917503082BC7E0D0E010E0FC2EC801C9
:102120000C2E02C0959587950A94E2F780FD0CC0AD
:102130002197A0F7F12C8F2DDF91CF911F910F9157
:10214000FF90DF90CF900895B6018C2F0E94701001
:102150000E94D70C019761F3EECFCF93DF93EC0190
:102160000E947E10BE010E9470100E94D70CDF9169
:10217000CF910895FC01808191810E94AD109295CC
:102180009F70963091F058F4925F9F70923058F49F
:10219000803F19F030F4883E30F481E008959A5F72
:1021A000F4CF843FD1F380E00895883EB0F3813FBF
:1021B000D1F7F3CF83E290E00E94312C823289F490
:1021C00084E290E00E94312C873059F485E290E05F
:1021D0000E94312C91E0823109F090E0892F8170CA
:1021E000089580E0FCCFCF9384E090E00E94312CF2
:1021F000C82F82E290E00E94312C982F8C2FCF9133
:1022000008951F93CF93DF93EC01FC01EB57FD4F33
:1022100080816823B1F00E94042C182F0E94042CA6
:102220008F77782F20E8720F08F47FEF612F80916D
:1022300044050E944809462F282F672FCE010E948F
:10224000C007DF91CF911F910895B0E0A0E0EBE2CD
:10225000F1E10C94702B8C01FC01EB57FD4F808158
:10226000682349F1D0904305D0914405C0914205BF
:10227000EC2EF12C0E94042C282FC7018C549F4F68
:1022800068E671E00E94442B8E199F0997FD039622
:10229000959587959595879523706C2F289F600D50
:1022A00011247D2D8D2F0E944809462F282F672F3E
:1022B000C8010E94C007CDB7DEB7E7E00C948C2BB5
:1022C00046E050E06CE170E081E495E00E943F2C34
:1022D000109207040895B0E0A0E0E1E7F1E10C946A
:1022E000682B0E9413056093AB037093AC0380933B
:1022F000AD039093AE0330914105132F137019F085
:10230000132F16951695209114012130D9F0222310
:1023100059F0223009F4D8C3233009F4DFC3CDB714
:10232000DEB7EFE00C94842B1092160160933D050C
:1023300070933E0580933F059093400581E0809324
:102340001401EDCF9091130181E019130BC0832F7D
:1023500083702091120130E091E08217130609F496
:1023600090E0892F817080931801809146059091AB
:102370001701981739F08093170140E060E080E082
:102380000E94BD071E3150F4E12FF0E0E852F34DFA
:102390000C94582B8091180181111EC0C0E08091CF
:1023A00016018F5F80931601C1118AC382E080936A
:1023B000140180911801811183C3112309F48CC386
:1023C0000E94B60581FFABCF2FEF4FEF6FEF8BE28F
:1023D00090E00E94C007A3CF40E060E080E00E9450
:1023E000BD07DCCFC091160181E1C89FC02D11242B
:1023F00001E10C0FF02E033510F022E5F22E609172
:10240000420570914305809144050E944809E62EDB
:10241000D72EC82ED0E0CF1528F0C1E0023508F441
:10242000BECFBCCFFE01EB57FD4F808190911701CD
:10243000892331F02C2D4E2D6D2DCE010E94C00729
:102440002196E9CFC091160181E1C89FC02D1124CA
:1024500001E10C0FF02E033510F092E5F92ED0902B
:102460004305E0904405D09142056D2F7D2D8E2DC2
:102470000E944809C62EB72EA82E609145056D0F03
:102480007D2D8E2D0E944809E62ED72E982ED0E065
:10249000CF1518F6FE01EB57FD4F90818091170183
:1024A000892359F0292D4E2D6D2D90FD03C02A2D25
:1024B0004C2D6B2DCE010E94C0072196E9CFC09113
:1024C000160181E1C89FC02D112401E10C0FE02EFF
:1024D000033510F082E5E82ED0904305C090440506
:1024E00020914505D0E4FD2E3F2D329F312D112442
:1024F000F32ED0E0CE1508F090CFFE01EB57FD4F44
:102500008081909117018923B9F0FE01EE0FFF1F22
:10251000EE51FE4F808182958F70609142058F9DB4
:10252000600D11247D2D8C2D0E944809462F282FE7
:10253000672FCE010E94C0072196DCCFC091160103
:1025400081E1C89FC02D112401E10C0FE02E03355D
:1025500010F0A2E5EA2ED0904305C09044052091EA
:102560004505F0E4FF2E3F2D329F312D1124F32E2F
:10257000D0E0CE1508F051CFFE01EB57FD4F808122
:10258000909117018923D9F0FE01EE0FFF1FEF5143
:10259000FE4F6081F69EB0011124E5E075956795C8
:1025A000EA95E1F780914205680F7D2D8C2D0E9400
:1025B0004809462F282F672FCE010E94C007219679
:1025C000D8CFC091160181E1C89FC02D112401E12F
:1025D0000C0FF02E033510F052E5F52EE090420579
:1025E000D0914305D0904405609145056695669568
:1025F000669580913D0590913E050E943E090E949E
:102600008F08805887FD8195880F282F3D2D239FA7
:10261000212D1124822F6E2D7D2F0E944809E62E38
:10262000D72EC82ED0E0CF1508F0F7CEFE01EB571D
:10263000FD4F808190911701892331F02C2D4E2D73
:102640006D2DCE010E94C0072196EDCF84E997E061
:102650000E94DC0907C08AE697E0FACF81E798E09C
:102660000E94E90AC82F9BCE82E598E0F9CF87E364
:1026700098E00E947C0AF6CF8BE198E0FACF88E6DA
:1026800097E0E6CF8FE597E0E3CF86E597E0E0CFF0
:102690008DE397E0DDCF8FE297E0EBCF86E199E025
:1026A000DFCF8AE098E0DCCF86EF97E0E2CF82E0F0
:1026B00097E00E94260AD6CF84ED96E0FACF8DE906
:1026C00096E0F7CFC0911801C1111EC06091450579
:1026D00020E1620F08F46FEF80913D0590913E0577
:1026E0000E943E096AE070E00E94302B892B09F0BD
:1026F00055CE0E94042C62E570E00E94442B60914C
:1027000017010E9425114BCEC091160181E1C89F8F
:10271000C02D112401E10C0F802F033508F082E554
:10272000D0E0E82EF12CCE15DF050CF076CE6091CE
:102730001701CE010E9425112196F5CFC0911801F5
:10274000C1111EC06091450520E1620F08F46FEFD2
:1027500080913D0590913E050E943E0965E070E044
:102760000E94302B892B09F019CE0E94042C62E5BF
:1027700070E00E94442B609117010E9401110FCE5E
:10278000C091160181E1C89FC02D112401E10C0FF9
:10279000802F033508F082E5D0E0E82EF12CCE152D
:1027A000DF050CF03ACE60911701CE010E940111B5
:1027B0002196F5CFC091160181E1C89FC02D11244B
:1027C00001E10C0FF02E033510F042E5F42ED0900D
:1027D0004305E0904405D09142056091450566951A
:1027E0006695669580913D0590913E050E943E0953
:1027F0000E948F08805887FD8195880F682F2CE0F4
:10280000629F612D11246D0F7D2D8E2D0E94480930
:10281000E62ED72EC82ED0E0CF1508F0FECDFE0153
:10282000EB57FD4F808190911701892331F02C2DBA
:102830004E2D6D2DCE010E94C0072196EDCF8EEA60
:1028400098E006CF8CE896E003CF4091AF0350911B
:10285000B0036091B1037091B20380913D059091F6
:102860003E05A0913F05B091400584179507A60746
:10287000B70708F493CD0E94D108082F0E94D10811
:1028800092E5891BF0F7890FC82FD0E0FE01EB57C6
:10289000FD4F809117019081892309F40FC120E039
:1028A00040E060E001FD13C00E94D108082F0E94A3
:1028B000D108782F76952FE7720F08F47FEF602FFD
:1028C000809144050E944809462F282F672FCE018A
:1028D0000E94C0072091450530E1230F08F42FEF37
:1028E00060E1822F90E00E943E09BC0184EF91E0FC
:1028F0000E94302B80913D0590913E05A0913F05AF
:10290000B0914005860F971FA11DB11D8093AF03A5
:102910009093B003A093B103B093B2033FCD409125
:1029200003045091040460910504709106048091A1
:102930003D0590913E05A0913F05B091400584175B
:102940009507A607B70708F429CD809118018823B9
:1029500029F040E060E080E00E94BD076091420500
:1029600070914305809144050E944809062F772EF7
:10297000682EC3EBD3E021E9E22E21E0F22E3FE006
:10298000A32EB12C47016E0187E0582EF60121914C
:102990006F01F40181914F0190E0222309F47EC080
:1029A000262D402F672D0E94C007F60180813197A8
:1029B00080835A945110EACF650197E0592E960111
:1029C0002D543C4F4901F601EF56FE4F808190E0B7
:1029D000F9012081222309F465C0262D402F672D9F
:1029E0000E94C007F40131978081F40180835A94DA
:1029F000F1E0CF1AD1085110E2CFF701808590E0C5
:102A00002885222309F452C0262D402F672D0E94CD
:102A1000C007F701878190E02F81222309F44AC083
:102A2000262D402F672D0E94C0070E94D108837079
:102A300091E009F090E09F8398876096F0E1EF0EB7
:102A4000F11C20E1A20EB11C3FE5A316B10409F070
:102A500099CF2091450530E1230F08F42FEF60E175
:102A6000822F90E00E943E09BC0188EB9BE00E940F
:102A7000302B80913D0590913E05A0913F05B0918E
:102A80004005860F971FA11DB11D809303049093ED
:102A90000404A0930504B093060480CC20E040E039
:102AA00060E081CF20E040E060E09ACF20E040E0AD
:102AB00060E0ADCF20E040E060E0B5CFC1E06FCC9A
:102AC000112309F42CCC7CCC10931301832F837039
:102AD000809312010E94750F83E031CC809107042E
:102AE00081110E94601140913D0550913E05609119
:102AF0003F05709140052FB7F8948091050590919E
:102B00000605A0910705B09108052FBF841B950B02
:102B1000A60BB70B4097A105B10508F400CC1092A5
:102B20001401FDCBE1E4F5E085E380838091190198
:102B300090911A01A0911B0181839283A3838FE757
:102B400084838FEF85830E946011089580917303C1
:102B500090917203892B8093DA02909174039923E8
:102B6000A1F0892B8093DA02809115018823E1F18D
:102B70008091090587FF38C08EE1ECEDF2E090E02E
:102B80008150A0F591110E945F0E40E250E062E595
:102B900073E08AED92E00E94142C892B21F180E2EF
:102BA000EAEDF2E0A2E5B3E001900D928A95E1F73B
:102BB000E0910005F09101053097A9F08091150191
:102BC000882359F08091090587FF07C08091DA02B8
:102BD0008093DB0286E08093DA020280F381E02DAD
:102BE0008AED92E00995089586E0C7CF21912223CE
:102BF00039F29F5FC5CF90E080E00E94A00590E091
:102C000080E00E948A05109272030E94A61586E059
:102C1000E5EAF3E0DF011D928A95E9F710929F0340
:102C200010929E031092A0030E943F0B0895809380
:102C300047050E94FB15089580914705982F9670CF
:102C4000963021F488600E9417160895877FFBCF85
:102C500021E030E001C0220F8A95EAF720958091AB
:102C6000470582230E94171608959091510380957D
:102C7000892380935103282F277091F4282F082E41
:102C8000000C330B9217130659F090910A0592FF2E
:102C900007C08595859585950E9428161092510349
:102CA000089590910A0592FB222720F9281769F0D0
:102CB00080FB92F990930A058091090590910A058D
:102CC0000E94331082E00E943516089521E030E022
:102CD00001C0220F8A95EAF780914705822B0E9456
:102CE00017160895809375030E94FB150895882395
:102CF00021F00E94650E0E94A6150895882339F0E0
:102D000090917303982B909373030E94A6150895D6
:102D1000882391F19CEF980F913A40F4682F8AED47
:102D200092E00E942B050E94A615089590E2980F4C
:102D3000983050F4877091E001C0990F8A95EAF7B6
:102D4000892F0E94650EEFCF9BE5980F933028F4F2
:102D500090E080E00E94A005089598E5980F9731D3
:102D600028F490E080E00E948A050895803F20F0DA
:102D70000E94660B0E943F0B0895CF93C82F8823B3
:102D8000D1F18CEF8C0F813AC0F580911501882329
:102D900011F18091090587FF1EC0EC2FE695E6959D
:102DA000E695F0E0E652FD4F828190E04C2F4770AF
:102DB00021E030E002C0220F331F4A95E2F7822360
:102DC0009323892B89F06C2F8AED92E00E942B05CA
:102DD0000E94A61509C0ECEDF2E08191C81799F3A5
:102DE00082E0E23EF807C9F76C2F8AED92E00E947C
:102DF00055050E94A615CF91089580E28C0F88306A
:102E000068F4C77021E030E001C0220FCA95EAF7EC
:102E100080917303822B80937303EBCFEBE5EC0F70
:102E2000E33040F4F0E0E45EFE4F808190E00E94E9
:102E3000A005E1CFE8E5EC0FE73150F4F0E0EE0F4C
:102E4000FF1FE15EFE4F808191810E948A05D3CFF2
:102E5000C03F88F28C2F0E94210C0E943F0BCBCFE9
:102E60001F93CF93DF93182FD0E0C0E0893311F484
:102E7000C0E5D0E0812F0E94BD16209739F4812F44
:102E80000E948816DF91CF911F9108958FE99FE0EE
:102E90000197F1F700C000002197EFCF0F931F9328
:102EA000CF93DF93C62FD42F022FFC01828188237A
:102EB000A9F060934A050E941F05909349058093ED
:102EC0004805C77081E001C0880FCA95EAF70E94E3
:102ED0007E16DF91CF911F910F91089580914A0541
:102EE000681332C080914805909149050E940405FD
:102EF000883C910548F510E21D0FCD17B9F080E22E
:102F00008C0F883040F4C77081E001C0880FCA95EB
:102F1000EAF70E947716183048F481E09D2F9770E9
:102F200001C0880F9A95EAF70E947E16802F0E94B2
:102F30003017183070F6D77081E001C0880FDA952D
:102F4000EAF70E947716C5CFC77081E001C0880FED
:102F5000CA95EAF7F6CF1092730380911501ECED54
:102F6000F2E0882361F08091090587FF08C08EE1B7
:102F7000DF011D928A95E9F70E94FB15089586E00E
:102F8000F7CFAAE2B0E0E7ECF7E10C94742B85E30D
:102F900095E02091F100DC012D93CD01B5E08D335A
:102FA0009B07B9F780913605833009F472C0B8F4F5
:102FB000813009F449C0823009F4B3C08091E8003F
:102FC00083FF8BC280913505909136059A3008F0C9
:102FD00084C2E92FF0E0EA50F34D0C94582B8A306C
:102FE00009F48EC08B3009F471C0893039F78091B3
:102FF0003505813219F78091390590913A0500978E
:1030000011F00297D9F68091E800877F8093E8005D
:103010008091E80082FF38C09091F3008091F20027
:10302000029731F48091F100813011F0863021F463
:103030008091F100809310058091E8008B77809358
:10304000E8000E94E503BACF80913505813A09F086
:10305000B5CF8091E800877F8093E80080913905A3
:1030600090913A05892B61F460E281E195E070E08E
:103070000E9491048091E8008B778093E8009ECFB6
:1030800060E090E080E0F3CF809133058111C0CF04
:1030900095CF80913505813A09F090CF809139051F
:1030A00090913A05892B09F089CF8091E800877FBC
:1030B0008093E8008091E80080FFFCCF80911501AB
:1030C0008093F1008091E8008E77B9CF809135052B
:1030D000813209F073CF8091390590913A05892B9F
:1030E00009F06CCF8091E800877F8093E8000E9410
:1030F000E50380913705809315010E94AB175ECFE1
:1031000080913505813209F059CF8091E800877FA1
:103110008093E8000E94E5038091380580930F05B5
:103120004DCF80913505813A09F048CF8091E80074
:10313000877F8093E8008091E80080FFFCCF80913A
:103140000F05BECF803899F0823809F0C6C1809152
:1031500039058F70873008F0C0C18093E9008091F5
:10316000EB0085FB882780F91092E90006C080916A
:10317000310590913205911182609091E800977F1E
:103180009093E8008093F1001092F1008091E800A4
:103190008E779FC1882309F48DC1823009F09DC1CB
:1031A00080913705811190C1809139058F702FEF83
:1031B000280F263008F091C18093E9002091EB00A0
:1031C00020FF82C1933031F48091EB0080628093C4
:1031D000EB007AC19091EB0090619093EB0021E0BD
:1031E00030E001C0220F8A95EAF72093EA0010929E
:1031F000EA008091EB008860EACF81116EC11091E6
:1032000037051F778091E3008078812B8093E3005E
:103210008091E800877F8093E8000E94E503809119
:10322000E80080FFFCCF8091E30080688093E3009A
:1032300082E0111183E0809333054FC180588230C2
:1032400008F04BC120913705309138052C3DE3E063
:103250003E07A1F583E08A838AE289834FB7F89419
:10326000DE01139620E03EE051E2E32FF0E05093C0
:103270005700E49120FF03C0E295EF703F5FEF70CD
:103280008E2F90E0EA30C0F0C7968D939D932F5F0C
:10329000243159F74FBF8091E800877F8093E80081
:1032A0006AE270E0CE0101960E9491048091E800EC
:1032B0008B778093E80011C1C096E7CF80913905E4
:1032C00090913A05432F55274330510509F44AC0E0
:1032D00078F54130510509F47AC08BE590E0E4EFD0
:1032E000F5E04230510509F0F8C02091E800277F51
:1032F0002093E80020913B0530913C05821793070D
:1033000008F49C0140E02115310509F065C0411128
:1033100063C08091E80082FDC9CF80913305882386
:1033200029F2853019F28091E80083FFF2CFBECFF9
:103330004132510509F43CC04232510509F0CDC07B
:103340008330910508F0C9C0FC01EE0FFF1FEB5759
:10335000FE4F0190F081E02D8E579E4FDC018C9145
:1033600090E01AC0332721303105D1F02115310505
:1033700061F02230310509F0B0C0E1E6F6E0E491F9
:103380008E2F90E0E1E6F6E007C0E3E9F6E0E49195
:103390008E2F90E0E3E9F6E0009709F49EC0A5CFF8
:1033A000EDE7F6E0E4918E2F90E0EDE7F6E0F4CF64
:1033B0008330910508F091C0880F991FFC01E557F3
:1033C000FE4F0190F081E02D89E090E08ECF82E108
:1033D00090E0EFE4F6E089CF80913305882309F48B
:1033E00065CF853009F462CF8091E80083FD5ECF20
:1033F0008091E80082FD8DCF8091E80080FF83CF2F
:103400009091F3008091F2002115310519F0883078
:10341000910550F041E0089709F040E08091E80004
:103420008E778093E8006FCF44914093F1003196FE
:10343000215031090196E8CF803809F04EC08091C3
:10344000E800877F8093E800809134058093F10045
:103450009DCE811142C0109137051230F0F5809158
:10346000E800877F8093E800109334050E94E5030D
:10347000112311F084E005C08091E30087FDFACFAD
:1034800081E08093330542E061EC81E00E94040416
:1034900042E261EC84E00E94040442E261EC82E0DA
:1034A0000E94040442E260EC83E00E9404048091E4
:1034B000330513C080913705813079F481E0933072
:1034C00009F080E0809332051092E9008091E800D5
:1034D000877F8093E8000E94E5038091E80083FFE6
:1034E0000AC08091E800877F8093E8008091EB001C
:1034F00080628093EB00AA96E3E00C94902B0E94EC
:10350000AB172FEF84E39CE0215080409040E1F71F
:1035100000C0000088E19AE00FB6F894A895809367
:1035200060000FBE90936000FFCF90E080E00E94AB
:10353000392C883E9E4F19F40E94DA10089580E0DD
:10354000089568EE7EEF90E080E00E946D2C60E0D0
:1035500082E090E00E944F2C60E083E090E00E94C7
:103560004F2C1092750360E084E090E00E944F2C95
:1035700064E082E290E00E944F2C60E085E090E001
:103580000E944F2C60E086E090E00E944F2C6FEF8D
:1035900087E090E00E944F2C40E050E0BA0188E0C4
:1035A00090E00E94612C60E08DE090E00E944F2C42
:1035B00040E050E0BA0188E190E00E94612C60E0B8
:1035C00087E190E00E944F2C40E050E0BA018CE18E
:1035D00090E00E94612C70E060E080E290E00E9448
:1035E0006D2C40E050E0BA0188E190E00E94612C2F
:1035F00080E00E940A100E94231040E050E0BA01CF
:103600008FE090E00E94612C40E050E0BA0183E13D
:1036100090E00E94612C0895A5E0B0E0E2E1FBE1BA
:103620000C94662B8C01FC0183819481892B31F0F1
:103630008081918189238F3F09F086C52596E1E13C
:103640000C94822B0E947E10F82E682F89819A811B
:103650000E94AA0E69817A818F2D0E9470107C01D0
:10366000F8018281882309F435C5970122513F452D
:103670002031310508F05BC58FEF93E00E94312CBB
:10368000811128C0FEEEEF0E57EA852E52E0952EEE
:10369000E11032C01C821B82442443944AE0342E41
:1036A00074018FEFE81AF80AC4010E94312C898353
:1036B0001A82882379F09FEF980F933058F58A8308
:1036C000498292E0890E911CC7010E94312C8B83A4
:1036D000811121C080915103877009F4AFCFF801A7
:1036E0008281882309F4AACF80910A0582FFA6CFA0
:1036F00082E00E943516A2CF811424E0920651F395
:10370000C4010E94312C811101C0EA943FEF831A59
:10371000930ABECF4701FE0131967F01F701208158
:10372000222309F4BDCF213009F047C09181828165
:10373000913031F4F2E0EF0EF11C0E94301707C017
:10374000923049F422E0E20EF11C0E94BD163FEFD8
:10375000E31AF30AE3CF933031F432E0E30EF11CC5
:103760000E948816F4CF943021F08FEFE81AF80AFF
:10377000EECF92E0E90EF11C30E020E0B7016F5F80
:103780007F4FF70141818053990B8A30910550F0AA
:1037900021503109E0F28FE99FE00197F1F700C075
:1037A0000000F6CF329EF001339EF00D11249C01F3
:1037B0002E0F3F1F842F7B01E1CFE22FF0E0EC5072
:1037C000FE4F5490822F86958695869590E0FC0159
:1037D000EC51FE4F64902770712C022E02C075943C
:1037E00067940A94E2F7E1E06E227724FC01EC5240
:1037F000FE4FA490B12C022E02C0B594A7940A9457
:10380000E2F7F1E0AF22BB24FC01EC53FE4FC49081
:10381000D12C02C0D594C7942A95E2F721E0C222A8
:10382000DD246114710419F081EE0E94BD16A1140B
:10383000B10419F086EE0E94BD16852D0E94301746
:10384000A114B10419F086EE0E9488166114710467
:1038500019F081EE0E948816C114D10409F477CFC3
:103860008CE26BCF81E00E9466160E941C1632CF5C
:1038700081E00E942816F9CF82E0FBCF95EFE91690
:103880009CE5F90609F465C008F45FC027E245EE3F
:1038900066EEF6EFEF16FCE5FF0609F444C4882354
:1038A00009F463C410924A0523E0E2162DE5F206FE
:1038B00008F056C03AEFE3163CE5F30630F4C701D2
:1038C00082509C45449708F057C00E94F310909393
:1038D0000A0580930905E1E1EE16ECE5FE0609F420
:1038E00031C108F09FC029E0E2162CE5F20609F488
:1038F00017C108F068C085E0E8168CE5F80609F401
:1039000003C108F051C0E3E0EE16ECE5FE0609F451
:10391000F1C008F0F5C080910905816022E0E2164F
:103920002CE5F20609F4E9C08091090590910A0599
:103930000E9433100E94AB17CDCE27E245EE65EE14
:10394000F2C326E241EE60EEEEC327E245EE64EEFE
:10395000EAC326E241EE62EEE6C328E241E0EFCFA1
:1039600081E6E8168DE5F80609F4AFCF95EAE91689
:103970009DE5F90609F4A9CF36E1E3163CE5F30627
:1039800009F071C4809173038A7A91E009F490E0A0
:103990009093FA0269E2811165E38AED92E00E9458
:1039A00055050E94A61596CE80910905806237E0E4
:1039B000E3163CE5F30609F4A0C008F4ADC080911D
:1039C000090580649AC0809109058B7F9DE0E91606
:1039D0009CE5F90609F491C0B0F4809109058E7F49
:1039E000FBE0EF16FCE5FF0609F487C080910905AE
:1039F0008C602CE0E2162CE5F20608F47EC0809183
:103A000009058D7F7AC0809109058F7E3FE0E3161E
:103A10003CE5F30609F471C008F488C080910905FB
:103A20008F7D6BC09DEFE9169CE5F90609F486C011
:103A300078F5F5E1EF16FCE5FF0609F491C0A0F476
:103A400080910905837F33E1E3163CE5F30609F431
:103A500054C008F47BC00E94AB1790910905892FD0
:103A600097FB87F9805849C09BEFE9169CE5F9065A
:103A700009F44EC008F05EC080910A058160FAEF3B
:103A8000EF16FCE5FF0609F04FCF80930A054CCFF7
:103A900021E0E2162DE5F20609F46EC0B8F48FEFCE
:103AA000E8168CE5F80609F457C080910A05836092
:103AB000E1149DE5F90648F380910A05982F909549
:103AC00091708E7F892B90FB81F9DFCFE1E6EE16B6
:103AD000EDE5FE0609F456C0F5EAEF16FDE5FF0632
:103AE00009F457C022E0E2162DE5F20609F01CCFDA
:103AF00060E043C08091090582608093090514CF7E
:103B0000809109058460F9CF809109058860F5CF1F
:103B100080910A058260B9CF809109058061EDCF5F
:103B20000E94AB17809109058068E7CF8091090555
:103B3000877FE3CF80910A058E7FA7CF80910A050A
:103B40008D7FA3CF809109058F7BD7CF0E94AB17C4
:103B5000809109058F77D1CF80910A058C7F95CF11
:103B60008091090582FB992790F921E0922790FB2B
:103B700082F990FB83F9C1CF61E08EE090E00E9472
:103B80004F2CD2CE90910905892F8F7E94FF8061B2
:103B9000B4CF90910905892F8E7F90FF8160ADCFC2
:103BA0008091FA0269E2811165E38AED92E00E9458
:103BB0002B05F7CE45E756E060E876E00E94C305A6
:103BC00089CD40E856E065E776E0F8CF46E456E078
:103BD00061E576E0F3CF41E556E066E476E0EECFCE
:103BE0004AE256E068E376E0E9CF48E356E06AE26D
:103BF00076E0E4CF4CE156E06EE076E0DFCF4FEDCB
:103C000055E06DEE75E0DACF4DEE55E06FED75E005
:103C1000D5CF61E081E00E945C065CCD61E08DE083
:103C2000FACF0E94AB178FEF94E3ECE08150904005
:103C3000E040E1F700C000000E94F30480910A0513
:103C400082FB882780F991E089270E945116F801AC
:103C50008281E080F180882309F445C0C7010E9479
:103C60007E10D82E682FC7010E94AA0EB7018D2D95
:103C70000E9470100E94D70C7C01882EF801D2801F
:103C8000B580B2943FE0B322809151038770C1F0B8
:103C9000AD2CDD20B1F08F2D807F803421F080E2CB
:103CA0008E0D883068F080910A0582FF09C082E09D
:103CB0000E943516809151038770AA24A394811124
:103CC000A12C9F2C92942FE09222FBE0F91508F48E
:103CD00079C0E92DF0E0E050F34D0C94582B81E0D1
:103CE000B4CF80E0B2CFC7010E94760ED82EBECFEF
:103CF0002F2D2F70C22E8F2D807F19F0C29490EF40
:103D0000C922DD20B9F0CC2069F080E28E0D883028
:103D100010F0811009C080917303C82AC092730308
:103D20000E94A6158E2D4CC080917203C82AC092A5
:103D30007203F6CF8E2D0E948816CC2009F442C063
:103D400080E28E0D883010F0811004C08C2D0E940E
:103D5000650E06C0C09480917203C822C09272039F
:103D60000E94A6152FC03F2D3F70C32E8F2D807F40
:103D7000803219F0C29480EFC822882089F081E057
:103D8000881609F468C0DD2009F472C0BB2009F46C
:103D900068C0F801858180FFC5CF8F70858361C0C1
:103DA00020910A0522FD35C0DD2069F1CC2039F0D3
:103DB00080917303C82AC09273030E94A61580E005
:103DC0000E94BD16292D2850330B2430310510F4E4
:103DD0000E94B605AA2009F431CC8091510380FDE0
:103DE0002DCCF80112828595859585950E946616E1
:103DF000C8010E940C1B809151038595859585957E
:103E00000E9428161BCC80E00E948816CC20D1F29C
:103E10009DCFDD2099F0909174038C2D892BB110EA
:103E200003C00E947E16CECFE1E0BE12FACF22FF81
:103E3000C9CF981739F280937403C4CFB11006C06C
:103E40000E945F0E8C2D0E947716BCCFF1E0BF164A
:103E500009F4B8CFF5CFDD2031F025E02B1508F4BB
:103E6000B1CF8C2DDECF34E03B1508F4ABCFEACFD9
:103E7000BB2041F3F9E38F1209C02FEF37EE83E047
:103E8000215030408040E1F700C000008E2D0E949C
:103E9000881698CF8F2D86958695837061F0813036
:103EA00009F090CFC7019370D11002C090E080E07C
:103EB0000E948A0587CFC7019370D11002C090E09D
:103EC00080E00E94A0057ECF8E2DDD2029F00E948B
:103ED000210C0E943F0B76CF0E94660BFACF8F2DEC
:103EE000837091F5D1106ECF4E2D42954695477057
:103EF000440F440F8E2D8F70042E01C0880F0A943A
:103F0000EAF72E2D2071E4FE07C02FE030E001C05B
:103F1000220F4A95EAF720953F2D36953695337056
:103F2000323069F050F440917503313029F0822B22
:103F300084230E94721646CF842B822BFACF282B23
:103F4000809175038227F5CF8695DD2011F08F2DA6
:103F50008170882309F436CF4E2D429546954770DF
:103F6000440F440F8E2D8F70042E01C0880F0A94C9
:103F7000EAF72E2D2071E4FE07C02FE030E001C0EB
:103F8000220F4A95EAF720953F2D369536953370E6
:103F9000323069F050F440914705313029F0822BDE
:103FA00084230E9417160ECF842B822BFACF282B46
:103FB000809147058227F5CF9F2D9F70F92EDD2038
:103FC00029F0892F0E9466168E2D2BCF8E2D0E94F0
:103FD00077168F2D0E942816F5CE8E2DE2EF8E16C5
:103FE000B1F1E81570F0F0EF8F16D1F021EF8216E5
:103FF00091F0DD2009F45EC0B11094CE8F2D8F7149
:104000002AC033EF831651F194EF8912F2CF8091D9
:104010000A0582FD2FC08F2D8F71DD20D9F21BC0C4
:10402000DD2081F0E4E0EB1508F4CCCE2F2D2F71CC
:1040300081E090E001C0880F2A95EAF7909147054A
:104040008927AFCFF5E0FB1508F4BCCEEFCF8F2D5D
:104050008F71D110BFCF0E946616B4CE80E0DD20F4
:1040600009F49FCF9F2D9F7181E001C0880F9A9521
:10407000EAF797CFDD2099F02F2D2F71F22E822FA6
:104080000E94661680910A0582FF07C038E0F39E01
:10409000C00111248360809351038F2DDCCF81E018
:1040A0000E94351681E08B1508F08CCE82E00E94CC
:1040B000351688CEBB2059F0893309F0E7CE9FEF43
:1040C000E7EEF3E09150E040F040E1F7DDCE8F2DD8
:1040D0008F7180CFF0E1EF16FFE5FF0609F4C8CB42
:1040E00021E1E2162FE5F20609F4C6CB93EFE916BB
:1040F0009CE5F90609F425CC08F0C0CBF8EDEF16E5
:10410000FCE5FF0609F419CC29EDE2162CE5F206D0
:1041100009F423CC37EDE3163CE5F30609F0BFCBF9
:1041200026E241EE61EEC8010E944E17D3CA30E18B
:10413000E3163FE5F30609F495CB91E1E9169FE517
:10414000F906A1F682E08FCB85E0DE0111960190A1
:104150000D928A95E1F7F801228189819A812111D6
:1041600071CA0E94760EF82E75CAF6E1EF16FCE5CC
:10417000FF0609F415CD8091730382722AECE216D2
:104180002CE5F20609F436CDE0F595ECE9169CE550
:10419000F90609F41BCDE0F4F3ECEF16FCE5FF069D
:1041A00009F408CD08F00DCD32ECE3163CE5F3063A
:1041B00009F04DCD8091410591E08927809341051B
:1041C000109214018091070481608093070482CAD1
:1041D00097ECE9169CE5F90609F402CD08F4FBCC4E
:1041E000F8ECEF16FCE5FF0609F4FFCC4EE056E0D4
:1041F0006CE176E029ECE2162CE5F20609F4DECC5F
:1042000026CD3FECE3163CE5F30609F407CDB8F400
:10421000ECECEE16ECE5FE0609F4F6CC08F4EFCC77
:104220002DECE2162CE5F20609F4F3CC61E085E012
:104230003EECE3163CE5F30609F4EDCC08CD86ED43
:10424000E8168CE5F80648F461E082E191EDE916A4
:104250009CE5F90608F4DFCC3DCAEDE5EE16FE0656
:1042600009F438CAF4CCFAE5EF16FDE5FF0609F4C7
:1042700036CD78F4E1143CE5F30609F4D2CC8EEDAA
:10428000E8168CE5F80609F0E2CC0E94A11A0E941B
:104290007F1A9CE5E9169DE5F90609F4CFCC08F4F0
:1042A00020CDF7EAEF16FDE5FF0689F3D0CC1F938A
:1042B000CF93DF9380911E03807F09F049C08091E6
:1042C0001B03882309F444C080915003D0911F033D
:1042D0006091190370911A03A0911C03B0911D0302
:1042E000C62FC72316E0D81799F190E0109711F068
:1042F000CF3F19F401968770F6CF189F9001199F50
:10430000300D1124F901E05EFC4F41814713F2CFDB
:1043100040814613EFCF42814111ECCF438154815C
:104320004A1B5B0B483C510528F780911E038F7098
:10433000806180931E03F901EB5DFC4F80818F70DB
:104340008061808389E193E00E940C1B0E946C0EC7
:10435000DF91CF911F910895A1E1B0E0E2EBF1E28E
:104360000C946D2B8C0185E0F801DE011D96019007
:104370000D928A95E1F7F801E28089E1A82E83E0A9
:10438000B82E60911C0370911D036115710509F42D
:1043900026C19091190340911A03892F84238F3FDE
:1043A00009F41DC120813181C380D480F0901B03AA
:1043B000F601E61BF70BFF2009F4DCC080911E0319
:1043C000582F507FE83CF10508F09FC051116BC099
:1043D000FE2C431314C0921312C0E11010C08F7052
:1043E000806180931E03C5010E940C1B80911E03F7
:1043F000F80185838F2D6196EAE00C94892BC11416
:10440000D10429F0822F83238F3F09F003C180E07C
:10441000F82FF170DF2E80FF3CC080915003409157
:104420001F0356E0841315C02D873E878D859E851A
:104430000E94AD10292F22952F702230F0F02430E9
:1044400018F59F70F1F0F8019581907FD1F4D12C8F
:104450001EC090E0589FF001599FF00D1124E05EBE
:10446000FC4F6181361306C06081261303C0628150
:10447000E6120FC001968770D5CF9F7011F0882388
:1044800031F3805E883018F3C8010E940C1BFD2CAC
:10449000B1CFEE2009F4AECF80911E0381608093EE
:1044A0001E03F12CA7CF431306C0921304C0F801DA
:1044B000EE2009F479C0C8010E94BA10882309F1DE
:1044C000EE20F9F080911E03803270F020911903E4
:1044D00030911A0338872F831986DB86CA868C872A
:1044E000CE0107960E940C1B86E0F801A9E1B3E01B
:1044F00001900D928A95E1F70E945721FF24F394D1
:1045000079CFC8010E940C1BF9CF51110AC089E173
:1045100093E00E940C1B86E0F50111928A95E9F761
:10452000C0CF43130FC092130DC0E1100BC0F801B0
:104530008583C8010E940C1B86E0F50111928A95C3
:10454000E9F758CFC8010E94BA108823D1F2EE20B3
:10455000C1F280911E03803238F22091190330910C
:104560001A033A8329831B82DD82CC828E83CE019B
:104570000196B8CFE83CF105F8F6FE2CEE2009F2E2
:1045800043131FC092131DC080911E0380FD10C0F5
:10459000982F907F69F0F8018583903F31F0982F34
:1045A000907F905F8F70892B8583C8010E940C1BC0
:1045B00086E0F801A9E1B3E001900D928A95E1F758
:1045C00019CFC8010E94BA1081118ECF80911E03AD
:1045D000816080931E03C8010E940C1B0BCFEE204C
:1045E00009F48FCFC8010E94BA10F82E882309F46D
:1045F00088CF86E0F801A9E1B3E001900D928A9599
:10460000E1F78091190390911A030E94AD100E9466
:104610005721F0CE81E08E25FBCEA7E1B0E0E3E1AB
:10462000F3E20C94742B4B8B5C8B6D8B7E8B8F8B9E
:104630006111109272031A8A198A85E0FE0173963D
:10464000DE011D9601900D928A95E1F786E0FE014C
:104650003D96DE01179601900D928A95E1F7CE0105
:1046600007960E94AC21811112C086E0FE013796A8
:10467000DE01119601900D928A95E1F78A859B855E
:10468000892B29F088859F8189238F3F81F516E04A
:104690008091500390911F03891317C06796E3E040
:1046A0000C94902B96E0929FD001939FB00D112413
:1046B000A05EBC4FFE01319601900D929A95E1F7F4
:1046C00080931F030E946C0EE2CF819FC0011124D2
:1046D000805E9C4F0E94AC21882301F3809150039F
:1046E00090E001968770992780935003D1CF209155
:1046F0001F0330E0C901019687709927409150034C
:104700004817190679F60E94AB1710921F031092F2
:10471000500386E0E9E1F3E0DF011D928A95E9F7B5
:10472000B6CF4F925F927F928F929F92AF92BF923D
:10473000CF92DF92EF92FF920F931F93CF93DF936D
:10474000CDB7DEB72F970FB6F894DEBF0FBECDBF43
:104750008E010F5F1F4F8AE0F80111928A95E9F7E9
:104760002DE4E22E21E0F22ECC24C394D12C882417
:104770008394912C52E6A52E51E0B52EF70181913C
:104780007F018F3F09F44DC0F894E82FE295EF7058
:10479000F0E021A18F70A40102C0440F551F8A953B
:1047A000E2F7CA01922F982B91A392A180958923B9
:1047B00082A3789400C09DE5492E91E0592ED8013E
:1047C000B60160957095F20171902F018D919D91C8
:1047D000AD0142505109FFEF7F1609F47DC0272D2E
:1047E00022952F7030E0F90120A130E0F72DFF7005
:1047F00002C035952795FA95E2F720FD6DC08C290A
:104800009D29FA0191838083A414B504E1F6F70190
:10481000319780818F3F11F00E947D0CF0EAFA956C
:10482000F1F7CC0CDD1C2DE5E21621E0F20609F0D3
:10483000A5CF4AE050E0B80189E793E00E94142C2C
:10484000FF24F394009709F4F12C892B09F447C055
:104850008AE0F801A9E7B3E001900D928A95E1F7AB
:1048600081E0809378030E941F05909377038093E3
:10487000760380917603909177030E940405059753
:1048800090F18091790390917A03909395038093AE
:10489000940380917B0390917C0390939703809382
:1048A000960380917D0390917E039093990380936A
:1048B000980380917F039091800390939B03809352
:1048C0009A03809181039091820390939D0380933A
:1048D0009C031092780307C08623972392CF809180
:1048E00078038111C6CF80918E038823A9F0869525
:1048F00051F18CE08B8784E08C871D860E941F0518
:104900008160782F9F878E8710928E034B855C8500
:104910006D858F850E940D238F2D2F960FB6F894ED
:10492000DEBF0FBECDBFDF91CF911F910F91FF90E2
:10493000EF90DF90CF90BF90AF909F908F907F903F
:104940005F904F9008958BE0D5CF1F920F920FB6D6
:104950000F9211242F933F934F935F936F937F9305
:104960008F939F93AF93BF93CF93DF93EF93FF9377
:10497000D091E900DF708091EC00C82FC17080FDFC
:10498000C0E81092E9008091F000877F8093F000EA
:1049900078940E94C1171092E9008091F00088601D
:1049A0008093F000CD2BCF70C093E900FF91EF9181
:1049B000DF91CF91BF91AF919F918F917F916F9137
:1049C0005F914F913F912F910F900FBE0F901F90CD
:1049D00018951F920F920FB60F9211242F933F93A9
:1049E0004F935F936F937F938F939F93AF93BF93F7
:1049F000EF93FF938091E10082FF09C08091E20074
:104A000082FF05C08091E1008B7F8093E10080915F
:104A1000DA0080FF24C08091D80080FF20C0809100
:104A2000DA008E7F8093DA008091D90080FF9DC0EC
:104A300080E189BD82E189BD09B400FEFDCF81E03E
:104A40008093330580910E05811109C00E946B038C
:104A50000E9436048091E20084608093E20080919D
:104A6000E10080FF17C08091E20080FF13C08091B9
:104A7000E2008E7F8093E2008091E200806180936B
:104A8000E2008091D80080628093D80019BC85E054
:104A9000809333058091E10084FF2BC08091E20078
:104AA00084FF27C080E189BD82E189BD89B5982F47
:104AB000917080FFFBCF8091D8008F7D8093D800CC
:104AC0008091E1008F7E8093E1008091E2008F7EF3
:104AD0008093E2008091E20081608093E200809107
:104AE0003405882309F447C084E08093330580911E
:104AF00033058091E10083FF27C08091E20083FFAE
:104B000023C08091E100877F8093E10082E0809361
:104B10003305109234058091E1008E7F8093E1008F
:104B20008091E2008E7F8093E2008091E2008061BC
:104B30008093E20042E060E080E00E940404809103
:104B4000F00088608093F000FF91EF91BF91AF91EA
:104B50009F918F917F916F915F914F913F912F9195
:104B60000F900FBE0F901F90189519BC109233052F
:104B700010920E0574CF8091E30087FD93E090932F
:104B80003305B5CF78941F921FB61F9211248F93CF
:104B90009F93AF93BF938091050590910605A091D7
:104BA0000705B09108050196A11DB11D809305056B
:104BB00090930605A0930705B0930805BF91AF91A8
:104BC0009F918F911F901FBE1F9018951F921FB627
:104BD0001F9211248F939F93AF93BF9380910405ED
:104BE000811113C08091050590910605A0910705DC
:104BF000B09108054196A11DB11D809305059093C4
:104C00000605A0930705B0930805BF91AF919F914A
:104C10008F911F901FBE1F901895CDB7DEB7AA9732
:104C20000FB6F894DEBF0FBECDBF85B7806885BFD5
:104C300085B7806885BF84B7877F84BF0FB6F89437
:104C4000A895809160008861809360001092600058
:104C50000FBE80E890E00FB6F894809361009093C7
:104C600061000FBE8BE79CE09093D9028093D8023D
:104C70000E946B030E9436048091E200846080935E
:104C8000E2007894809133058823A1F01091E90027
:104C90001F709091EC00892F817090FD80E8182B97
:104CA0001092E9008091E80083FD0E94C1171F70F7
:104CB0001093E90082E084BD93E095BD9AEF97BD23
:104CC00080936E000E94DA10811102C00E942310AE
:104CD0000DE411E0BDE5EB2EB1E0FB2ED8018D9186
:104CE0008D018F3F11F00E947D0CE016F106B1F7A7
:104CF0000DE511E0A2E6EA2EA1E0FA2EF80181917D
:104D00008F018F3F11F00E947D0CE016F106B1F784
:104D10008AE0E4E9F3E0DF01282F1D922A95E9F704
:104D2000E9E7F3E0DF011D928A95E9F70E94951A01
:104D3000811102C00E94A11A82E090E00E94312CF1
:104D4000809383030E94F31090930A0580930905D2
:104D50000E949123EFE3FCE93197F1F700C00000D6
:104D60000E9491238091940380FF08C06FEF7FEF32
:104D700090E080E00E946D2C0E94F30483E090E0BC
:104D80000E94312C0E9472160E94951A811104C053
:104D90000E94A11A0E94921546E050E06CE170E07A
:104DA00081E495E00E94212C109207048091410536
:104DB0008C7F11F40E94921581E08093910380987A
:104DC000889A8198899A8FE891E00197F1F700C05D
:104DD00000002091910342E953E0FA018E2F841BD9
:104DE000821708F469C180910905806880930905DC
:104DF0008091090590910A050E94331084E091E0AA
:104E0000909301058093000558E1E52EF12C60E4B4
:104E1000562E70E1A72EE0E1BE2EF2E0CF2ED12C6F
:104E20008091330512E1853009F488C10E949123F5
:104E300081110E941305A4E9B3E0E4E8F3E010E077
:104E400000E0702F8D919D912191319128173907A4
:104E500009F484C160E088248394912C28273927A1
:104E6000A90148215921452B09F472C169A37AA3EC
:104E70009C012821392191E0232B09F490E09BA388
:104E80000E941F058160782F9DA38CA349A15AA180
:104E90006BA18DA10E940D23000F111FF801EC578B
:104EA000FC4F8081918188269926918280820E9480
:104EB0006B11712C612C22E0322E4424439480919A
:104EC0009103781608F461C161100E94130586E011
:104ED000E5EAF3E0DE01119601900D928A95E1F783
:104EE0001092A7031092A8031092A9031092AA038C
:104EF0008B819C81892B09F44AC08091A3039091F6
:104F0000A4030E9404059C0190919F03992309F436
:104F1000A2C325313105D8F19F3F19F09F5F9093CF
:104F20009F031B81112359F00E94010C9FEF111662
:104F30000CF491E0899F802D11248093A7031C819C
:104F4000112359F00E94010C9FEF11160CF491E00F
:104F5000899F802D11248093A8033091A7033323C8
:104F6000B1F02091A803222391F045EB3403C00156
:104F70001124992309F482C19093A70345EB2403DC
:104F800090011124332309F47DC13093A8038D814E
:104F90009E81892B09F44AC08091A1039091A203BC
:104FA0000E9404059C0190919E03992309F44EC32D
:104FB00021353105D8F19F3F19F09F5F90939E03F3
:104FC0001D81112359F00E94DF0B9FEF11160CF485
:104FD00091E0899F802D11248093A9031E811123C4
:104FE00059F00E94DF0B9FEF11160CF491E0899F9E
:104FF000802D11248093AA033091A9033323B1F0AB
:105000002091AA03222391F045EB3403C00111241F
:10501000992309F43BC19093A90345EB2403900124
:105020001124332309F436C13093AA0346E050E03B
:10503000BE016F5F7F4F85EA93E00E94142C892B9D
:1050400011F00E943F0B86E0FE013196A5EAB3E025
:1050500001900D928A95E1F70E94B6059091930315
:1050600089138093930380913305843009F0D8CE5F
:1050700083E08093E9008091E80082FFD1CE8091A7
:10508000E80090E085FF06C00E948A03882309F4A7
:1050900005C191E08091E8008B778093E800992327
:1050A00009F4BECEE981E150E33108F08BC1F0E0B4
:1050B000E45FF24D0C94582B8FB18170799904C044
:1050C00090E0892B81938ACE92E0FBCF80913305CB
:1050D000843019F10E946B11109204050FB6F894F8
:1050E000A895E09260000FBE5092600083B7817F68
:1050F000846083BF83B7816083BF7894889583B7CA
:105100008E7F83BF0FB6F894A89580916000886168
:1051100080936000109260000FBE8091320588235A
:1051200069F00E949123E4E9F3E081919191892B48
:1051300009F06DC293E0EE39F907B9F780913305B4
:10514000853009F4C3CF0E94AB170E94B6056ECE1E
:105150006F5F880C991C603109F082CE0F5F1F4F82
:105160000530110509F06DCE8FEF8EA38FA318A621
:105170000E941F058160782F9AA789A74EA15FA181
:1051800068A58AA50E940D2392CE072D10E0EFB1ED
:10519000E170799971C080E08E2BD801AE56BC4F7A
:1051A000EC919E2F9370891709F464C0EE0FEE0FF7
:1051B000E82BEC93EF70F0E0EA59FE4FD801A057CE
:1051C000BC4F4D0180819C91890F8C9320E08230EF
:1051D0000CF1F801E157FC4F80818F5F8083F8016B
:1051E000EE0FFF1FEE59FE4F808191819A838983D4
:1051F0004B820E941F058160782F9D838C83F8016C
:10520000E257FC4F408249815A816B818D810E9417
:105210000D2321E0F40180818F3F0CF5F801E15767
:10522000FC4F808181508083F801EE0FFF1FEC5905
:10523000FE4F808191819A8389834B820E941F0552
:105240008160782F9D838C83F801E257FC4F308278
:1052500049815A816B818D810E940D2321E0D40107
:105260008C91082E000C990BB6010E94442BF4017E
:105270008083622A739423CE82E08ECF81E0809374
:10528000A7037CCE81E08093A80381CE81E0809348
:10529000A903C3CE81E08093AA03C8CE00E210E048
:1052A000CE0101964C018091E80085FD0AC08091F5
:1052B000E8008B778093E8000E948A03882399F3A3
:1052C000E8CE8091F100D4018D934D010150110978
:1052D00051F7DFCE1A8289E08B8311C08A81823038
:1052E00009F4ABC1833091F1813009F06BC00E94A9
:1052F00013050E945E2B6B837C838D839E8380913C
:105300003305843009F08CCD1091E9001F70909125
:10531000EC00892F817090FD80E8182B82E080934B
:10532000E9008091E80080FF0DC050E040E060E2BD
:1053300070E0CE0101960E94BB038091E8008E7759
:105340008093E8001F701093E9006ACD8091940368
:10535000909195039827892798279C838B83809128
:105360009603909197039827892798279E838D838A
:105370008091980390919903982789279827988777
:105380008F8380919A0390919B0398278927982770
:105390009A87898780919C0390919D0398278927FC
:1053A00098279C878B87ABCF8A81823059F46B8199
:1053B0007C818D819E810E945E2B86E290E00E941E
:1053C0004F2C9DCF8FEF89839ACF4C816B818A813F
:1053D0000E9441109827892798279E838D838FCF1D
:1053E0002D813E813227232732274C816B818A8190
:1053F0000E94AC0F84CF0E94D20F81CF8A81813866
:10540000C9F068F4803809F07ACF8091420520E035
:105410004B816091430590E00E94FB0570CF82387C
:1054200019F1833809F06BCF8B8120E0409144055E
:105430006C81F1CF60E08B810E945C069B81809142
:105440004105911109C0982F937011F01092140129
:105450008C7F8093410553CF982F937011F4109255
:1054600014018C7F8160F5CFEB818FE7E43020F46D
:10547000F0E0EA58FE4F80818093450540CF8A8155
:10548000813899F030F4803809F039CF80914405A3
:1054900023CF823879F0833809F031CF80914205EB
:1054A0008B83809143058C832ACF8091410586951B
:1054B000869512CF80914505873230F08F3530F0D8
:1054C0008E3930F083E008CF80E006CF81E004CF52
:1054D00082E002CF0E94601112CFBA8210CF81E029
:1054E0008A8389E5F9CE0A811B81102701271027BD
:1054F000FE0131963F018C80CF01880D911D4C013A
:10550000C80189559D4F8614970409F4F8CE0935D2
:10551000A1E01A0750F40E94312CF30184830F5F3D
:105520001F4FBFEF6B1A7B0AEBCFD30114961C926F
:10553000F6CF0A811B81102701271027FE01319623
:105540003F018C80800E912E911CC80189559D4F82
:105550000815190509F4D3CE0935F1E01F0728F421
:10556000D30114966C910E944F2CBFEF6B1A7B0AEB
:105570000F5F1F4FEACF0E949C0FC1CE84E08A8349
:10558000BECE0A811B81102701271027FE0131960C
:105590003F018C80CF01880D911D4C01C801879679
:1055A0006814790409F4ABCE0038A2E01A0750F46D
:1055B0000E94312CF30184830F5F1F4FBFEF6B1AE2
:1055C0007B0AECCFD30114961C92F6CF0A811B8183
:1055D000102701271027FE0131963F018C80800E95
:1055E000912E911CC80187968016910609F487CEEA
:1055F0000038F2E01F0728F4D30114966C910E9442
:105600004F2CBFEF6B1A7B0A0F5F1F4FEBCFA9BC6C
:1056100019BD09B400FEFDCF8091D8008F7D809325
:10562000D8008091E00082608093E0008091E000EB
:1056300081FDFCCF0E94AB1781CD86E290E00E94F5
:10564000312C1B821C821D828E8359CE2B3031055A
:1056500008F0B3CCEBCC2B30310508F05FCC97CC05
:10566000AA1BBB1B51E107C0AA1FBB1FA617B70788
:1056700010F0A61BB70B881F991F5A95A9F78095A4
:105680009095BC01CD01089597FB072E16F4009468
:1056900007D077FD09D00E94302B07FC05D03EF4DF
:1056A000909581959F4F0895709561957F4F0895CE
:1056B000EE0FFF1F0590F491E02D099469279627BE
:1056C000692778278727782708952F923F924F924E
:1056D0005F926F927F928F929F92AF92BF92CF9282
:1056E000DF92EF92FF920F931F93CF93DF93CDB78B
:1056F000DEB7CA1BDB0B0FB6F894DEBF0FBECDBF03
:1057000009942A88398848885F846E847D848C84D3
:105710009B84AA84B984C884DF80EE80FD800C81DC
:105720001B81AA81B981CE0FD11D0FB6F894DEBFBF
:105730000FBECDBFED010895CF92DF92EF92FF92A1
:10574000CF93DF93CDB7DEB72A970FB6F894DEBFBD
:105750000FBECDBF89879A87A985BA852D913D91C6
:105760004D915C9129833A834B835C83232B242BBB
:10577000252B41F424E239ED4BE557E029833A83A8
:105780004B835C8369817A818B819C812DE133EF2E
:1057900041E050E00E94732C69017A01A7EAB1E46C
:1057A0009B01AC010E94922C69837A838B839C833A
:1057B000ACEEB4EFA70196010E94A02C9B01AC01B6
:1057C00089819A81AB81BC81820F931FA41FB51F71
:1057D000B7FF03C00197A109B048E985FA85808326
:1057E0009183A283B3839F772A960FB6F894DEBF86
:1057F0000FBECDBFDF91CF91FF90EF90DF90CF90A4
:1058000008950E949C2B089580E091E00E949C2BBB
:105810000895B0E0A0E08093000190930101A0936F
:105820000201B09303010895FB01DC0104C08D91D6
:105830000190801921F441505040C8F7881B990B02
:105840000895DC01CB01FC01F999FECF06C0F2BD41
:10585000E1BDF89A319600B40D9241505040B8F72E
:105860000895F999FECF92BD81BDF89A992780B528
:105870000895A8E1B0E042E050E00C94232CDC0154
:10588000A40FB51F4150504048F0CB01840F951F25
:105890002E910E94502C41505040D0F70895262F51
:1058A000F999FECF92BD81BDF89A019700B4021616
:1058B00039F01FBA20BD0FB6F894FA9AF99A0FBEC4
:1058C00008950396272F0E94502C0E944F2C252FBD
:1058D0000E94502C242F0C94502C0196272F0E94AC
:1058E000502C0C944F2C052E97FB1EF400940E9414
:1058F0008A2C57FD07D00E94A52C07FC03D04EF43C
:105900000C948A2C50954095309521953F4F4F4FE0
:105910005F4F089590958095709561957F4F8F4F5B
:105920009F4F08950E94C72CA59F900DB49F900D86
:10593000A49F800D911D11240895B7FF0C94922C03
:105940000E94922C821B930B0895A1E21A2EAA1B8F
:10595000BB1BFD010DC0AA1FBB1FEE1FFF1FA2171F
:10596000B307E407F50720F0A21BB30BE40BF50B1C
:10597000661F771F881F991F1A9469F760957095A5
:10598000809590959B01AC01BD01CF010895A29F28
:10599000B001B39FC001A39F700D811D1124911D03
:1059A000B29F700D811D1124911D0895F894FFCFB1
:1059B000CA11F21122125F129E12E11226132B134A
:1059C0002E13341337133C133F134213451348135C
:1059D0004B134E135113541357135C135F1362137D
:1059E0009E13DA131F14221425148F14A218CA1838
:1059F0006D1ACA186D1AFD181E196D1A1C1A291A6B
:105A0000781E781EB31EB31E4A1F641FE21EE21EDC
:105A10006F1FDC1FED1FED1F6A296E29D429E529B0
:105A2000F029FB29FE293F2A6A2AE229E2296D2A68
:0E5A30006F2A732A992ABB2ABE2AC12AE62AA7
:105A3E0001000000F004350F140F0F0F0A0FEF04D2
:105A4E003905FFFF030100FF0000FFC8818283E2DA
:105A5E0000E900EA00B500B600B700CD008301CC26
:105A6E00008A0192019401210223022402250226BA
:105A7E000227022A02B300B4006F00700066C6351A
:105A8E0034979694959392919037333231F4F5F68C
:105A9E00F7670B040C0400FF0100010000FFFF007C
:105AAE0000010001FF000F3F7FBD003131295A1B5D
:105ABE00750A4022B684016201AC0006061F063F3D
:105ACE00060EFF0D0C0B0A0908070605040302015A
